{
  "contractName": "Electron",
  "abi": [
    {
      "inputs": [
        {
          "internalType": "address",
          "name": "token",
          "type": "address"
        },
        {
          "internalType": "uint256",
          "name": "_tokenTarget",
          "type": "uint256"
        },
        {
          "internalType": "uint256",
          "name": "_etrTarget",
          "type": "uint256"
        },
        {
          "internalType": "address",
          "name": "_xerra",
          "type": "address"
        }
      ],
      "stateMutability": "nonpayable",
      "type": "constructor"
    },
    {
      "anonymous": false,
      "inputs": [
        {
          "indexed": true,
          "internalType": "address",
          "name": "provider",
          "type": "address"
        },
        {
          "indexed": true,
          "internalType": "uint256",
          "name": "token2Amount",
          "type": "uint256"
        }
      ],
      "name": "AddEtr",
      "type": "event"
    },
    {
      "anonymous": false,
      "inputs": [
        {
          "indexed": true,
          "internalType": "address",
          "name": "provider",
          "type": "address"
        },
        {
          "indexed": true,
          "internalType": "uint256",
          "name": "token1Amount",
          "type": "uint256"
        }
      ],
      "name": "AddToken",
      "type": "event"
    },
    {
      "anonymous": false,
      "inputs": [
        {
          "indexed": true,
          "internalType": "address",
          "name": "owner",
          "type": "address"
        },
        {
          "indexed": true,
          "internalType": "address",
          "name": "spender",
          "type": "address"
        },
        {
          "indexed": false,
          "internalType": "uint256",
          "name": "value",
          "type": "uint256"
        }
      ],
      "name": "Approval",
      "type": "event"
    },
    {
      "anonymous": false,
      "inputs": [
        {
          "indexed": true,
          "internalType": "address",
          "name": "provider",
          "type": "address"
        },
        {
          "indexed": true,
          "internalType": "uint256",
          "name": "electricityAmount",
          "type": "uint256"
        }
      ],
      "name": "ElectricityIn",
      "type": "event"
    },
    {
      "anonymous": false,
      "inputs": [
        {
          "indexed": true,
          "internalType": "address",
          "name": "provider",
          "type": "address"
        },
        {
          "indexed": true,
          "internalType": "uint256",
          "name": "electricityAmount",
          "type": "uint256"
        }
      ],
      "name": "ElectricityOut",
      "type": "event"
    },
    {
      "anonymous": false,
      "inputs": [
        {
          "indexed": true,
          "internalType": "address",
          "name": "buyer",
          "type": "address"
        },
        {
          "indexed": true,
          "internalType": "uint256",
          "name": "token1Sold",
          "type": "uint256"
        },
        {
          "indexed": true,
          "internalType": "uint256",
          "name": "token2Bought",
          "type": "uint256"
        }
      ],
      "name": "EtrBuy",
      "type": "event"
    },
    {
      "anonymous": false,
      "inputs": [
        {
          "indexed": true,
          "internalType": "address",
          "name": "provider",
          "type": "address"
        },
        {
          "indexed": true,
          "internalType": "uint256",
          "name": "token2Amount",
          "type": "uint256"
        }
      ],
      "name": "RemoveEtr",
      "type": "event"
    },
    {
      "anonymous": false,
      "inputs": [
        {
          "indexed": true,
          "internalType": "address",
          "name": "provider",
          "type": "address"
        },
        {
          "indexed": true,
          "internalType": "uint256",
          "name": "token1Amount",
          "type": "uint256"
        }
      ],
      "name": "RemoveToken",
      "type": "event"
    },
    {
      "anonymous": false,
      "inputs": [
        {
          "indexed": true,
          "internalType": "address",
          "name": "buyer",
          "type": "address"
        },
        {
          "indexed": true,
          "internalType": "uint256",
          "name": "token2Sold",
          "type": "uint256"
        },
        {
          "indexed": true,
          "internalType": "uint256",
          "name": "token1Bought",
          "type": "uint256"
        }
      ],
      "name": "TokenBuy",
      "type": "event"
    },
    {
      "anonymous": false,
      "inputs": [
        {
          "indexed": true,
          "internalType": "address",
          "name": "from",
          "type": "address"
        },
        {
          "indexed": true,
          "internalType": "address",
          "name": "to",
          "type": "address"
        },
        {
          "indexed": false,
          "internalType": "uint256",
          "name": "value",
          "type": "uint256"
        }
      ],
      "name": "Transfer",
      "type": "event"
    },
    {
      "anonymous": false,
      "inputs": [
        {
          "indexed": true,
          "internalType": "address",
          "name": "provider",
          "type": "address"
        },
        {
          "indexed": false,
          "internalType": "uint256",
          "name": "amount",
          "type": "uint256"
        }
      ],
      "name": "etrRewardGiveOut",
      "type": "event"
    },
    {
      "anonymous": false,
      "inputs": [
        {
          "indexed": true,
          "internalType": "address",
          "name": "provider",
          "type": "address"
        },
        {
          "indexed": false,
          "internalType": "uint256",
          "name": "amount",
          "type": "uint256"
        }
      ],
      "name": "tokenRewardGiveOut",
      "type": "event"
    },
    {
      "inputs": [
        {
          "internalType": "address",
          "name": "owner",
          "type": "address"
        },
        {
          "internalType": "address",
          "name": "spender",
          "type": "address"
        }
      ],
      "name": "allowance",
      "outputs": [
        {
          "internalType": "uint256",
          "name": "",
          "type": "uint256"
        }
      ],
      "stateMutability": "view",
      "type": "function",
      "constant": true
    },
    {
      "inputs": [
        {
          "internalType": "address",
          "name": "spender",
          "type": "address"
        },
        {
          "internalType": "uint256",
          "name": "amount",
          "type": "uint256"
        }
      ],
      "name": "approve",
      "outputs": [
        {
          "internalType": "bool",
          "name": "",
          "type": "bool"
        }
      ],
      "stateMutability": "nonpayable",
      "type": "function"
    },
    {
      "inputs": [
        {
          "internalType": "address",
          "name": "account",
          "type": "address"
        }
      ],
      "name": "balanceOf",
      "outputs": [
        {
          "internalType": "uint256",
          "name": "",
          "type": "uint256"
        }
      ],
      "stateMutability": "view",
      "type": "function",
      "constant": true
    },
    {
      "inputs": [],
      "name": "decimals",
      "outputs": [
        {
          "internalType": "uint8",
          "name": "",
          "type": "uint8"
        }
      ],
      "stateMutability": "view",
      "type": "function",
      "constant": true
    },
    {
      "inputs": [
        {
          "internalType": "address",
          "name": "spender",
          "type": "address"
        },
        {
          "internalType": "uint256",
          "name": "subtractedValue",
          "type": "uint256"
        }
      ],
      "name": "decreaseAllowance",
      "outputs": [
        {
          "internalType": "bool",
          "name": "",
          "type": "bool"
        }
      ],
      "stateMutability": "nonpayable",
      "type": "function"
    },
    {
      "inputs": [],
      "name": "etrRewardBalance",
      "outputs": [
        {
          "internalType": "uint256",
          "name": "",
          "type": "uint256"
        }
      ],
      "stateMutability": "view",
      "type": "function",
      "constant": true
    },
    {
      "inputs": [
        {
          "internalType": "uint256",
          "name": "",
          "type": "uint256"
        }
      ],
      "name": "etrRewardList",
      "outputs": [
        {
          "internalType": "address",
          "name": "",
          "type": "address"
        }
      ],
      "stateMutability": "view",
      "type": "function",
      "constant": true
    },
    {
      "inputs": [
        {
          "internalType": "address",
          "name": "",
          "type": "address"
        }
      ],
      "name": "etrRewardRecord",
      "outputs": [
        {
          "internalType": "uint256",
          "name": "",
          "type": "uint256"
        }
      ],
      "stateMutability": "view",
      "type": "function",
      "constant": true
    },
    {
      "inputs": [
        {
          "internalType": "address",
          "name": "",
          "type": "address"
        }
      ],
      "name": "etrStakeBalance",
      "outputs": [
        {
          "internalType": "uint256",
          "name": "",
          "type": "uint256"
        }
      ],
      "stateMutability": "view",
      "type": "function",
      "constant": true
    },
    {
      "inputs": [],
      "name": "etrTarget",
      "outputs": [
        {
          "internalType": "uint256",
          "name": "",
          "type": "uint256"
        }
      ],
      "stateMutability": "view",
      "type": "function",
      "constant": true
    },
    {
      "inputs": [
        {
          "internalType": "address",
          "name": "spender",
          "type": "address"
        },
        {
          "internalType": "uint256",
          "name": "addedValue",
          "type": "uint256"
        }
      ],
      "name": "increaseAllowance",
      "outputs": [
        {
          "internalType": "bool",
          "name": "",
          "type": "bool"
        }
      ],
      "stateMutability": "nonpayable",
      "type": "function"
    },
    {
      "inputs": [],
      "name": "name",
      "outputs": [
        {
          "internalType": "string",
          "name": "",
          "type": "string"
        }
      ],
      "stateMutability": "view",
      "type": "function",
      "constant": true
    },
    {
      "inputs": [],
      "name": "symbol",
      "outputs": [
        {
          "internalType": "string",
          "name": "",
          "type": "string"
        }
      ],
      "stateMutability": "view",
      "type": "function",
      "constant": true
    },
    {
      "inputs": [],
      "name": "tokenAddress",
      "outputs": [
        {
          "internalType": "address",
          "name": "",
          "type": "address"
        }
      ],
      "stateMutability": "view",
      "type": "function",
      "constant": true
    },
    {
      "inputs": [],
      "name": "tokenRewardBalance",
      "outputs": [
        {
          "internalType": "uint256",
          "name": "",
          "type": "uint256"
        }
      ],
      "stateMutability": "view",
      "type": "function",
      "constant": true
    },
    {
      "inputs": [
        {
          "internalType": "uint256",
          "name": "",
          "type": "uint256"
        }
      ],
      "name": "tokenRewardList",
      "outputs": [
        {
          "internalType": "address",
          "name": "",
          "type": "address"
        }
      ],
      "stateMutability": "view",
      "type": "function",
      "constant": true
    },
    {
      "inputs": [
        {
          "internalType": "address",
          "name": "",
          "type": "address"
        }
      ],
      "name": "tokenRewardRecord",
      "outputs": [
        {
          "internalType": "uint256",
          "name": "",
          "type": "uint256"
        }
      ],
      "stateMutability": "view",
      "type": "function",
      "constant": true
    },
    {
      "inputs": [
        {
          "internalType": "address",
          "name": "",
          "type": "address"
        }
      ],
      "name": "tokenStakeBalance",
      "outputs": [
        {
          "internalType": "uint256",
          "name": "",
          "type": "uint256"
        }
      ],
      "stateMutability": "view",
      "type": "function",
      "constant": true
    },
    {
      "inputs": [],
      "name": "tokenTarget",
      "outputs": [
        {
          "internalType": "uint256",
          "name": "",
          "type": "uint256"
        }
      ],
      "stateMutability": "view",
      "type": "function",
      "constant": true
    },
    {
      "inputs": [],
      "name": "totalElectricity",
      "outputs": [
        {
          "internalType": "uint256",
          "name": "",
          "type": "uint256"
        }
      ],
      "stateMutability": "view",
      "type": "function",
      "constant": true
    },
    {
      "inputs": [],
      "name": "totalSupply",
      "outputs": [
        {
          "internalType": "uint256",
          "name": "",
          "type": "uint256"
        }
      ],
      "stateMutability": "view",
      "type": "function",
      "constant": true
    },
    {
      "inputs": [
        {
          "internalType": "address",
          "name": "to",
          "type": "address"
        },
        {
          "internalType": "uint256",
          "name": "amount",
          "type": "uint256"
        }
      ],
      "name": "transfer",
      "outputs": [
        {
          "internalType": "bool",
          "name": "",
          "type": "bool"
        }
      ],
      "stateMutability": "nonpayable",
      "type": "function"
    },
    {
      "inputs": [
        {
          "internalType": "address",
          "name": "from",
          "type": "address"
        },
        {
          "internalType": "address",
          "name": "to",
          "type": "address"
        },
        {
          "internalType": "uint256",
          "name": "amount",
          "type": "uint256"
        }
      ],
      "name": "transferFrom",
      "outputs": [
        {
          "internalType": "bool",
          "name": "",
          "type": "bool"
        }
      ],
      "stateMutability": "nonpayable",
      "type": "function"
    },
    {
      "inputs": [],
      "name": "xerraAddress",
      "outputs": [
        {
          "internalType": "address",
          "name": "",
          "type": "address"
        }
      ],
      "stateMutability": "view",
      "type": "function",
      "constant": true
    },
    {
      "inputs": [
        {
          "internalType": "address",
          "name": "",
          "type": "address"
        }
      ],
      "name": "xerraStakeBalance",
      "outputs": [
        {
          "internalType": "uint256",
          "name": "",
          "type": "uint256"
        }
      ],
      "stateMutability": "view",
      "type": "function",
      "constant": true
    },
    {
      "inputs": [
        {
          "internalType": "address",
          "name": "_tokenAddress",
          "type": "address"
        }
      ],
      "name": "getReserve",
      "outputs": [
        {
          "internalType": "uint256",
          "name": "",
          "type": "uint256"
        }
      ],
      "stateMutability": "view",
      "type": "function",
      "constant": true
    },
    {
      "inputs": [
        {
          "internalType": "address",
          "name": "provider",
          "type": "address"
        }
      ],
      "name": "getTokenPercentage",
      "outputs": [
        {
          "internalType": "uint256",
          "name": "",
          "type": "uint256"
        }
      ],
      "stateMutability": "view",
      "type": "function",
      "constant": true
    },
    {
      "inputs": [
        {
          "internalType": "address",
          "name": "provider",
          "type": "address"
        }
      ],
      "name": "getEtrPercentage",
      "outputs": [
        {
          "internalType": "uint256",
          "name": "",
          "type": "uint256"
        }
      ],
      "stateMutability": "view",
      "type": "function",
      "constant": true
    },
    {
      "inputs": [],
      "name": "giveOutTokenReward",
      "outputs": [
        {
          "internalType": "uint256",
          "name": "",
          "type": "uint256"
        }
      ],
      "stateMutability": "view",
      "type": "function",
      "constant": true
    },
    {
      "inputs": [],
      "name": "giveOutEtrReward",
      "outputs": [
        {
          "internalType": "uint256",
          "name": "",
          "type": "uint256"
        }
      ],
      "stateMutability": "view",
      "type": "function",
      "constant": true
    },
    {
      "inputs": [
        {
          "internalType": "address",
          "name": "provider",
          "type": "address"
        }
      ],
      "name": "updateCurrentStakeToken",
      "outputs": [
        {
          "internalType": "uint256",
          "name": "",
          "type": "uint256"
        }
      ],
      "stateMutability": "view",
      "type": "function",
      "constant": true
    },
    {
      "inputs": [
        {
          "internalType": "address",
          "name": "provider",
          "type": "address"
        }
      ],
      "name": "updateCurrentStakeEtr",
      "outputs": [
        {
          "internalType": "uint256",
          "name": "",
          "type": "uint256"
        }
      ],
      "stateMutability": "view",
      "type": "function",
      "constant": true
    },
    {
      "inputs": [
        {
          "internalType": "address",
          "name": "provider",
          "type": "address"
        },
        {
          "internalType": "uint256",
          "name": "amount",
          "type": "uint256"
        }
      ],
      "name": "usdtStakeInXerra",
      "outputs": [
        {
          "internalType": "uint256",
          "name": "",
          "type": "uint256"
        }
      ],
      "stateMutability": "view",
      "type": "function",
      "constant": true
    },
    {
      "inputs": [
        {
          "internalType": "uint256",
          "name": "amount",
          "type": "uint256"
        }
      ],
      "name": "EtrToTokenSwap",
      "outputs": [
        {
          "internalType": "uint256",
          "name": "",
          "type": "uint256"
        }
      ],
      "stateMutability": "nonpayable",
      "type": "function"
    },
    {
      "inputs": [
        {
          "internalType": "uint256",
          "name": "amount",
          "type": "uint256"
        }
      ],
      "name": "tokenToEtrSwap",
      "outputs": [],
      "stateMutability": "nonpayable",
      "type": "function"
    },
    {
      "inputs": [
        {
          "internalType": "uint256",
          "name": "amount",
          "type": "uint256"
        }
      ],
      "name": "addTokenLiquidity",
      "outputs": [],
      "stateMutability": "nonpayable",
      "type": "function"
    },
    {
      "inputs": [
        {
          "internalType": "uint256",
          "name": "amount",
          "type": "uint256"
        }
      ],
      "name": "addEtrLiquidity",
      "outputs": [],
      "stateMutability": "nonpayable",
      "type": "function"
    },
    {
      "inputs": [],
      "name": "handleWithdrawLiquidityInXra",
      "outputs": [],
      "stateMutability": "nonpayable",
      "type": "function"
    },
    {
      "inputs": [
        {
          "internalType": "uint256",
          "name": "amount",
          "type": "uint256"
        }
      ],
      "name": "withdrawTokenLiquidity",
      "outputs": [],
      "stateMutability": "nonpayable",
      "type": "function"
    },
    {
      "inputs": [
        {
          "internalType": "uint256",
          "name": "amount",
          "type": "uint256"
        }
      ],
      "name": "withdrawEtrLiquidity",
      "outputs": [],
      "stateMutability": "nonpayable",
      "type": "function"
    },
    {
      "inputs": [
        {
          "internalType": "uint256",
          "name": "_electricityIn",
          "type": "uint256"
        }
      ],
      "name": "electricityToEtr",
      "outputs": [],
      "stateMutability": "nonpayable",
      "type": "function"
    },
    {
      "inputs": [
        {
          "internalType": "uint256",
          "name": "_electricityOut",
          "type": "uint256"
        }
      ],
      "name": "etrToElectricity",
      "outputs": [],
      "stateMutability": "nonpayable",
      "type": "function"
    },
    {
      "inputs": [
        {
          "internalType": "uint256",
          "name": "amount",
          "type": "uint256"
        }
      ],
      "name": "reduceElectricityPrice",
      "outputs": [],
      "stateMutability": "nonpayable",
      "type": "function"
    },
    {
      "inputs": [
        {
          "internalType": "uint256",
          "name": "xerraAmount",
          "type": "uint256"
        }
      ],
      "name": "updateLiquidityAfterBalancer",
      "outputs": [],
      "stateMutability": "nonpayable",
      "type": "function"
    },
    {
      "inputs": [
        {
          "internalType": "uint256",
          "name": "_etrIn",
          "type": "uint256"
        }
      ],
      "name": "getTokenAmount",
      "outputs": [
        {
          "internalType": "uint256",
          "name": "",
          "type": "uint256"
        }
      ],
      "stateMutability": "view",
      "type": "function",
      "constant": true
    },
    {
      "inputs": [
        {
          "internalType": "uint256",
          "name": "_tokenin",
          "type": "uint256"
        }
      ],
      "name": "getEtrAmount",
      "outputs": [
        {
          "internalType": "uint256",
          "name": "",
          "type": "uint256"
        }
      ],
      "stateMutability": "view",
      "type": "function",
      "constant": true
    },
    {
      "inputs": [],
      "name": "getMyTokenReward",
      "outputs": [
        {
          "internalType": "uint256",
          "name": "",
          "type": "uint256"
        }
      ],
      "stateMutability": "view",
      "type": "function",
      "constant": true
    },
    {
      "inputs": [
        {
          "internalType": "uint256",
          "name": "_tokenin",
          "type": "uint256"
        }
      ],
      "name": "getEtrAmountNofee",
      "outputs": [
        {
          "internalType": "uint256",
          "name": "",
          "type": "uint256"
        }
      ],
      "stateMutability": "view",
      "type": "function",
      "constant": true
    },
    {
      "inputs": [],
      "name": "getTotalEtrReserve",
      "outputs": [
        {
          "internalType": "uint256",
          "name": "",
          "type": "uint256"
        }
      ],
      "stateMutability": "view",
      "type": "function",
      "constant": true
    },
    {
      "inputs": [],
      "name": "getTotalEtrSupply",
      "outputs": [
        {
          "internalType": "uint256",
          "name": "",
          "type": "uint256"
        }
      ],
      "stateMutability": "view",
      "type": "function",
      "constant": true
    },
    {
      "inputs": [],
      "name": "getTotalTokenReserve",
      "outputs": [
        {
          "internalType": "uint256",
          "name": "",
          "type": "uint256"
        }
      ],
      "stateMutability": "view",
      "type": "function",
      "constant": true
    },
    {
      "inputs": [],
      "name": "getTotalTokenRewardBalance",
      "outputs": [
        {
          "internalType": "uint256",
          "name": "",
          "type": "uint256"
        }
      ],
      "stateMutability": "view",
      "type": "function",
      "constant": true
    },
    {
      "inputs": [],
      "name": "getEtrRewardBalance",
      "outputs": [
        {
          "internalType": "uint256",
          "name": "",
          "type": "uint256"
        }
      ],
      "stateMutability": "view",
      "type": "function",
      "constant": true
    },
    {
      "inputs": [],
      "name": "getMyTokenStakeBalance",
      "outputs": [
        {
          "internalType": "uint256",
          "name": "",
          "type": "uint256"
        }
      ],
      "stateMutability": "view",
      "type": "function",
      "constant": true
    },
    {
      "inputs": [],
      "name": "getXerraStakeBalance",
      "outputs": [
        {
          "internalType": "uint256",
          "name": "",
          "type": "uint256"
        }
      ],
      "stateMutability": "view",
      "type": "function",
      "constant": true
    },
    {
      "inputs": [],
      "name": "getMyEtrStakeBalance",
      "outputs": [
        {
          "internalType": "uint256",
          "name": "",
          "type": "uint256"
        }
      ],
      "stateMutability": "view",
      "type": "function",
      "constant": true
    }
  ],
  "bytecode": "0x60806040523480156200001157600080fd5b506040516200501738038062005017833981810160405281019062000037919062000307565b6040518060400160405280600e81526020017f456c656374726f6e20546f6b656e0000000000000000000000000000000000008152506040518060400160405280600381526020017f45545200000000000000000000000000000000000000000000000000000000008152508160039080519060200190620000bb929190620001b2565b508060049080519060200190620000d4929190620001b2565b50505083600660006101000a81548173ffffffffffffffffffffffffffffffffffffffff021916908373ffffffffffffffffffffffffffffffffffffffff16021790555080600760006101000a81548173ffffffffffffffffffffffffffffffffffffffff021916908373ffffffffffffffffffffffffffffffffffffffff16021790555033600560006101000a81548173ffffffffffffffffffffffffffffffffffffffff021916908373ffffffffffffffffffffffffffffffffffffffff16021790555082600a8190555081600b8190555050505050620003dd565b828054620001c090620003a8565b90600052602060002090601f016020900481019282620001e4576000855562000230565b82601f10620001ff57805160ff191683800117855562000230565b8280016001018555821562000230579182015b828111156200022f57825182559160200191906001019062000212565b5b5090506200023f919062000243565b5090565b5b808211156200025e57600081600090555060010162000244565b5090565b600080fd5b600073ffffffffffffffffffffffffffffffffffffffff82169050919050565b6000620002948262000267565b9050919050565b620002a68162000287565b8114620002b257600080fd5b50565b600081519050620002c6816200029b565b92915050565b6000819050919050565b620002e181620002cc565b8114620002ed57600080fd5b50565b6000815190506200030181620002d6565b92915050565b6000806000806080858703121562000324576200032362000262565b5b60006200033487828801620002b5565b94505060206200034787828801620002f0565b93505060406200035a87828801620002f0565b92505060606200036d87828801620002b5565b91505092959194509250565b7f4e487b7100000000000000000000000000000000000000000000000000000000600052602260045260246000fd5b60006002820490506001821680620003c157607f821691505b602082108103620003d757620003d662000379565b5b50919050565b614c2a80620003ed6000396000f3fe608060405234801561001057600080fd5b50600436106103775760003560e01c8063782e1e6c116101d3578063b5d2c2b611610104578063dcc3b7e5116100a2578063e220e4261161007c578063e220e42614610b0c578063e5799e7d14610b3c578063ee98a49914610b5a578063f004fdd014610b7857610377565b8063dcc3b7e514610aa0578063dd62ed3e14610abe578063e069281e14610aee57610377565b8063c9a396e9116100de578063c9a396e9146109e0578063d684176b14610a10578063d6943c7314610a40578063d8d401d514610a7057610377565b8063b5d2c2b614610976578063c2507ac114610992578063c695cec1146109c257610377565b80639ce37f8a11610171578063a457c2d71161014b578063a457c2d7146108c8578063a69d65e7146108f8578063a9059cbb14610916578063b25c9ac51461094657610377565b80639ce37f8a1461084a5780639d76ea581461087a578063a04d9aad1461089857610377565b8063896ad1ec116101ad578063896ad1ec146107c257806395c728c2146107f257806395d89b411461082257806396206fab1461084057610377565b8063782e1e6c146107585780637c8b4e24146107765780638820fc84146107a657610377565b80632c8d24a6116102ad5780634c2250001161024b57806367f8f82e1161022557806367f8f82e146106ac5780636f02d4f7146106dc57806370a08231146106f857806375081b821461072857610377565b80634c225000146106565780635fa4db2b14610672578063665b177d1461068e57610377565b8063395093511161028757806339509351146105ba5780633985b54c146105ea5780633cda3eb01461061a57806347dd26f11461063857610377565b80632c8d24a614610560578063313ce5671461057e57806335cde4e51461059c57610377565b806316842c2d1161031a5780631bfb3f11116102f45780631bfb3f11146104d657806323b872dd146104f457806327632e3f146105245780632998ed531461054257610377565b806316842c2d1461046c57806318160ddd1461048857806318c519eb146104a657610377565b8063095ea7b311610356578063095ea7b3146103d25780630a823c63146104025780630c150f741461041e5780630fa5f85b1461043c57610377565b8062e27b841461037c57806304f9f26f1461039857806306fdde03146103b4575b600080fd5b61039660048036038101906103919190613e90565b610b96565b005b6103b260048036038101906103ad9190613e90565b610e94565b005b6103bc610f28565b6040516103c99190613f56565b60405180910390f35b6103ec60048036038101906103e79190613fd6565b610fba565b6040516103f99190614031565b60405180910390f35b61041c60048036038101906104179190613e90565b610fdd565b005b6104266112af565b604051610433919061405b565b60405180910390f35b61045660048036038101906104519190614076565b6112b5565b604051610463919061405b565b60405180910390f35b61048660048036038101906104819190613e90565b6112cd565b005b6104906116a7565b60405161049d919061405b565b60405180910390f35b6104c060048036038101906104bb9190614076565b6116b1565b6040516104cd919061405b565b60405180910390f35b6104de6116c9565b6040516104eb919061405b565b60405180910390f35b61050e600480360381019061050991906140a3565b611710565b60405161051b9190614031565b60405180910390f35b61052c61173f565b604051610539919061405b565b60405180910390f35b61054a6117a6565b604051610557919061405b565b60405180910390f35b61056861180d565b604051610575919061405b565b60405180910390f35b610586611817565b6040516105939190614112565b60405180910390f35b6105a4611820565b6040516105b1919061405b565b60405180910390f35b6105d460048036038101906105cf9190613fd6565b611826565b6040516105e19190614031565b60405180910390f35b61060460048036038101906105ff9190613e90565b61185d565b604051610611919061405b565b60405180910390f35b6106226118f1565b60405161062f919061413c565b60405180910390f35b610640611917565b60405161064d919061405b565b60405180910390f35b610670600480360381019061066b9190613e90565b61191d565b005b61068c60048036038101906106879190613e90565b611c3d565b005b610696611d82565b6040516106a3919061405b565b60405180910390f35b6106c660048036038101906106c19190613e90565b611dc9565b6040516106d3919061405b565b60405180910390f35b6106f660048036038101906106f19190613e90565b611e5d565b005b610712600480360381019061070d9190614076565b612276565b60405161071f919061405b565b60405180910390f35b610742600480360381019061073d9190613e90565b6122be565b60405161074f919061413c565b60405180910390f35b6107606122fd565b60405161076d919061405b565b60405180910390f35b610790600480360381019061078b9190614076565b612303565b60405161079d919061405b565b60405180910390f35b6107c060048036038101906107bb9190613e90565b61231b565b005b6107dc60048036038101906107d79190613e90565b6123af565b6040516107e9919061413c565b60405180910390f35b61080c60048036038101906108079190614076565b6123ee565b604051610819919061405b565b60405180910390f35b61082a61247f565b6040516108379190613f56565b60405180910390f35b610848612511565b005b610864600480360381019061085f9190614076565b61279c565b604051610871919061405b565b60405180910390f35b61088261282d565b60405161088f919061413c565b60405180910390f35b6108b260048036038101906108ad9190613fd6565b612853565b6040516108bf919061405b565b60405180910390f35b6108e260048036038101906108dd9190613fd6565b6128bb565b6040516108ef9190614031565b60405180910390f35b610900612932565b60405161090d919061405b565b60405180910390f35b610930600480360381019061092b9190613fd6565b612942565b60405161093d9190614031565b60405180910390f35b610960600480360381019061095b9190613e90565b612965565b60405161096d919061405b565b60405180910390f35b610990600480360381019061098b9190613e90565b612d84565b005b6109ac60048036038101906109a79190613e90565b6130a2565b6040516109b9919061405b565b60405180910390f35b6109ca613136565b6040516109d7919061405b565b60405180910390f35b6109fa60048036038101906109f59190614076565b613170565b604051610a07919061405b565b60405180910390f35b610a2a6004803603810190610a259190614076565b6131f3565b604051610a37919061405b565b60405180910390f35b610a5a6004803603810190610a559190614076565b61320b565b604051610a67919061405b565b60405180910390f35b610a8a6004803603810190610a859190614076565b61327a565b604051610a97919061405b565b60405180910390f35b610aa8613292565b604051610ab5919061405b565b60405180910390f35b610ad86004803603810190610ad39190614157565b6132ec565b604051610ae5919061405b565b60405180910390f35b610af6613373565b604051610b03919061405b565b60405180910390f35b610b266004803603810190610b219190614076565b6133ba565b604051610b33919061405b565b60405180910390f35b610b44613429565b604051610b51919061405b565b60405180910390f35b610b6261345b565b604051610b6f919061405b565b60405180910390f35b610b80613461565b604051610b8d919061405b565b60405180910390f35b60008111610bd9576040517f08c379a0000000000000000000000000000000000000000000000000000000008152600401610bd0906141e3565b60405180910390fd5b3073ffffffffffffffffffffffffffffffffffffffff166323b872dd3330846040518463ffffffff1660e01b8152600401610c1693929190614203565b6020604051808303816000875af1158015610c35573d6000803e3d6000fd5b505050506040513d601f19601f82011682018060405250810190610c599190614266565b506000601060003373ffffffffffffffffffffffffffffffffffffffff1673ffffffffffffffffffffffffffffffffffffffff1681526020019081526020016000205403610d0557600e339080600181540180825580915050600190039060005260206000200160009091909190916101000a81548173ffffffffffffffffffffffffffffffffffffffff021916908373ffffffffffffffffffffffffffffffffffffffff1602179055505b80601260003373ffffffffffffffffffffffffffffffffffffffff1673ffffffffffffffffffffffffffffffffffffffff1681526020019081526020016000206000828254610d5491906142c2565b9250508190555060005b600e80549050811015610e4c576000610db4600e8381548110610d8457610d83614318565b5b9060005260206000200160009054906101000a900473ffffffffffffffffffffffffffffffffffffffff166133ba565b90508060106000600e8581548110610dcf57610dce614318565b5b9060005260206000200160009054906101000a900473ffffffffffffffffffffffffffffffffffffffff1673ffffffffffffffffffffffffffffffffffffffff1673ffffffffffffffffffffffffffffffffffffffff16815260200190815260200160002081905550508080610e4490614347565b915050610d5e565b50803373ffffffffffffffffffffffffffffffffffffffff167ffd1ae88bb6620b02ba90d5b86530ce0f2c20488eddd45b42201e0625fa31117560405160405180910390a350565b60008111610ed7576040517f08c379a0000000000000000000000000000000000000000000000000000000008152600401610ece906141e3565b60405180910390fd5b610ee13382613470565b803373ffffffffffffffffffffffffffffffffffffffff167f3c00c3f5247818b150f9a0f9e739dcbd2f9323b48ac25c11bbf412bc0ef728ad60405160405180910390a350565b606060038054610f37906143be565b80601f0160208091040260200160405190810160405280929190818152602001828054610f63906143be565b8015610fb05780601f10610f8557610100808354040283529160200191610fb0565b820191906000526020600020905b815481529060010190602001808311610f9357829003601f168201915b5050505050905090565b600080610fc5613646565b9050610fd281858561364e565b600191505092915050565b60008111611020576040517f08c379a0000000000000000000000000000000000000000000000000000000008152600401611017906141e3565b60405180910390fd5b80601260003373ffffffffffffffffffffffffffffffffffffffff1673ffffffffffffffffffffffffffffffffffffffff168152602001908152602001600020600082825461106f91906143ef565b9250508190555060005b600e805490508110156111675760006110cf600e838154811061109f5761109e614318565b5b9060005260206000200160009054906101000a900473ffffffffffffffffffffffffffffffffffffffff166133ba565b90508060106000600e85815481106110ea576110e9614318565b5b9060005260206000200160009054906101000a900473ffffffffffffffffffffffffffffffffffffffff1673ffffffffffffffffffffffffffffffffffffffff1673ffffffffffffffffffffffffffffffffffffffff1681526020019081526020016000208190555050808061115f90614347565b915050611079565b503073ffffffffffffffffffffffffffffffffffffffff1663095ea7b330836040518363ffffffff1660e01b81526004016111a3929190614423565b6020604051808303816000875af11580156111c2573d6000803e3d6000fd5b505050506040513d601f19601f820116820180604052508101906111e69190614266565b503073ffffffffffffffffffffffffffffffffffffffff166323b872dd3033846040518463ffffffff1660e01b815260040161122493929190614203565b6020604051808303816000875af1158015611243573d6000803e3d6000fd5b505050506040513d601f19601f820116820180604052508101906112679190614266565b50803373ffffffffffffffffffffffffffffffffffffffff167fc7ba9545985c4d0cc29955d6760b2ad44ea71f9ddda876189364a3e957855ee860405160405180910390a350565b600c5481565b60116020528060005260406000206000915090505481565b600560009054906101000a900473ffffffffffffffffffffffffffffffffffffffff1673ffffffffffffffffffffffffffffffffffffffff163373ffffffffffffffffffffffffffffffffffffffff161461135d576040517f08c379a000000000000000000000000000000000000000000000000000000000815260040161135490614498565b60405180910390fd5b600081116113a0576040517f08c379a0000000000000000000000000000000000000000000000000000000008152600401611397906141e3565b60405180910390fd5b600660009054906101000a900473ffffffffffffffffffffffffffffffffffffffff1673ffffffffffffffffffffffffffffffffffffffff1663095ea7b330836040518363ffffffff1660e01b81526004016113fd929190614423565b6020604051808303816000875af115801561141c573d6000803e3d6000fd5b505050506040513d601f19601f820116820180604052508101906114409190614266565b50600660009054906101000a900473ffffffffffffffffffffffffffffffffffffffff1673ffffffffffffffffffffffffffffffffffffffff166323b872dd3033846040518463ffffffff1660e01b81526004016114a093929190614203565b6020604051808303816000875af11580156114bf573d6000803e3d6000fd5b505050506040513d601f19601f820116820180604052508101906114e39190614266565b5060005b600d805490508110156116a357600061153d600d838154811061150d5761150c614318565b5b9060005260206000200160009054906101000a900473ffffffffffffffffffffffffffffffffffffffff1661279c565b90508060116000600d858154811061155857611557614318565b5b9060005260206000200160009054906101000a900473ffffffffffffffffffffffffffffffffffffffff1673ffffffffffffffffffffffffffffffffffffffff1673ffffffffffffffffffffffffffffffffffffffff16815260200190815260200160002081905550600061160a600d84815481106115da576115d9614318565b5b9060005260206000200160009054906101000a900473ffffffffffffffffffffffffffffffffffffffff166123ee565b905080600f6000600d868154811061162557611624614318565b5b9060005260206000200160009054906101000a900473ffffffffffffffffffffffffffffffffffffffff1673ffffffffffffffffffffffffffffffffffffffff1673ffffffffffffffffffffffffffffffffffffffff168152602001908152602001600020819055505050808061169b90614347565b9150506114e7565b5050565b6000600254905090565b600f6020528060005260406000206000915090505481565b6000601360003373ffffffffffffffffffffffffffffffffffffffff1673ffffffffffffffffffffffffffffffffffffffff16815260200190815260200160002054905090565b60008061171b613646565b9050611728858285613817565b6117338585856138a3565b60019150509392505050565b6000670de0b6b3a7640000600f60003373ffffffffffffffffffffffffffffffffffffffff1673ffffffffffffffffffffffffffffffffffffffff1681526020019081526020016000205460085461179791906144b8565b6117a19190614541565b905090565b6000670de0b6b3a7640000601060003373ffffffffffffffffffffffffffffffffffffffff1673ffffffffffffffffffffffffffffffffffffffff168152602001908152602001600020546009546117fe91906144b8565b6118089190614541565b905090565b6000600954905090565b60006012905090565b600b5481565b600080611831613646565b905061185281858561184385896132ec565b61184d91906142c2565b61364e565b600191505092915050565b60008082116118a1576040517f08c379a0000000000000000000000000000000000000000000000000000000008152600401611898906145be565b60405180910390fd5b60006118ce600660009054906101000a900473ffffffffffffffffffffffffffffffffffffffff16613170565b905060006118db30613170565b90506118e8848383613b22565b92505050919050565b600760009054906101000a900473ffffffffffffffffffffffffffffffffffffffff1681565b60095481565b60008111611960576040517f08c379a0000000000000000000000000000000000000000000000000000000008152600401611957906141e3565b60405180910390fd5b600660009054906101000a900473ffffffffffffffffffffffffffffffffffffffff1673ffffffffffffffffffffffffffffffffffffffff166323b872dd3330846040518463ffffffff1660e01b81526004016119bf93929190614203565b6020604051808303816000875af11580156119de573d6000803e3d6000fd5b505050506040513d601f19601f82011682018060405250810190611a029190614266565b506000600f60003373ffffffffffffffffffffffffffffffffffffffff1673ffffffffffffffffffffffffffffffffffffffff1681526020019081526020016000205403611aae57600d339080600181540180825580915050600190039060005260206000200160009091909190916101000a81548173ffffffffffffffffffffffffffffffffffffffff021916908373ffffffffffffffffffffffffffffffffffffffff1602179055505b80601160003373ffffffffffffffffffffffffffffffffffffffff1673ffffffffffffffffffffffffffffffffffffffff1681526020019081526020016000206000828254611afd91906142c2565b9250508190555060005b600d80549050811015611bf5576000611b5d600d8381548110611b2d57611b2c614318565b5b9060005260206000200160009054906101000a900473ffffffffffffffffffffffffffffffffffffffff166123ee565b905080600f6000600d8581548110611b7857611b77614318565b5b9060005260206000200160009054906101000a900473ffffffffffffffffffffffffffffffffffffffff1673ffffffffffffffffffffffffffffffffffffffff1673ffffffffffffffffffffffffffffffffffffffff16815260200190815260200160002081905550508080611bed90614347565b915050611b07565b50803373ffffffffffffffffffffffffffffffffffffffff167fe1bea1af9b1d1aede8b7fa043080de8690470a8ae61449360b3d0c0bf8104b4660405160405180910390a350565b60008111611c80576040517f08c379a0000000000000000000000000000000000000000000000000000000008152600401611c77906141e3565b60405180910390fd5b60005b600d80549050811015611d7e57611cd8600d8281548110611ca757611ca6614318565b5b9060005260206000200160009054906101000a900473ffffffffffffffffffffffffffffffffffffffff1683612853565b60136000600d8481548110611cf057611cef614318565b5b9060005260206000200160009054906101000a900473ffffffffffffffffffffffffffffffffffffffff1673ffffffffffffffffffffffffffffffffffffffff1673ffffffffffffffffffffffffffffffffffffffff1681526020019081526020016000206000828254611d6491906142c2565b925050819055508080611d7690614347565b915050611c83565b5050565b6000601160003373ffffffffffffffffffffffffffffffffffffffff1673ffffffffffffffffffffffffffffffffffffffff16815260200190815260200160002054905090565b6000808211611e0d576040517f08c379a0000000000000000000000000000000000000000000000000000000008152600401611e04906145be565b60405180910390fd5b6000611e3a600660009054906101000a900473ffffffffffffffffffffffffffffffffffffffff16613170565b90506000611e4730613170565b9050611e54848383613bc7565b92505050919050565b60008111611ea0576040517f08c379a0000000000000000000000000000000000000000000000000000000008152600401611e97906141e3565b60405180910390fd5b6000611ecd600660009054906101000a900473ffffffffffffffffffffffffffffffffffffffff16613170565b90506000611eda30613170565b90506000611ee9848484613b22565b90506000611ef8858585613bc7565b905060008282611f0891906143ef565b90508060096000828254611f1c91906142c2565b92505081905550600660009054906101000a900473ffffffffffffffffffffffffffffffffffffffff1673ffffffffffffffffffffffffffffffffffffffff166323b872dd3330896040518463ffffffff1660e01b8152600401611f8293929190614203565b6020604051808303816000875af1158015611fa1573d6000803e3d6000fd5b505050506040513d601f19601f82011682018060405250810190611fc59190614266565b503073ffffffffffffffffffffffffffffffffffffffff1663a9059cbb33856040518363ffffffff1660e01b8152600401612001929190614423565b6020604051808303816000875af1158015612020573d6000803e3d6000fd5b505050506040513d601f19601f820116820180604052508101906120449190614266565b5060005b600d8054905081101561213657600061209e600d838154811061206e5761206d614318565b5b9060005260206000200160009054906101000a900473ffffffffffffffffffffffffffffffffffffffff1661279c565b90508060116000600d85815481106120b9576120b8614318565b5b9060005260206000200160009054906101000a900473ffffffffffffffffffffffffffffffffffffffff1673ffffffffffffffffffffffffffffffffffffffff1673ffffffffffffffffffffffffffffffffffffffff1681526020019081526020016000208190555050808061212e90614347565b915050612048565b5060005b600e80549050811015612228576000612190600e83815481106121605761215f614318565b5b9060005260206000200160009054906101000a900473ffffffffffffffffffffffffffffffffffffffff1661320b565b90508060126000600e85815481106121ab576121aa614318565b5b9060005260206000200160009054906101000a900473ffffffffffffffffffffffffffffffffffffffff1673ffffffffffffffffffffffffffffffffffffffff1673ffffffffffffffffffffffffffffffffffffffff1681526020019081526020016000208190555050808061222090614347565b91505061213a565b5082863373ffffffffffffffffffffffffffffffffffffffff167fde9e11d0f00c7f3ae693d200fa2125f67f1864e66e8fa7166ae13c3fae1be18c60405160405180910390a4505050505050565b60008060008373ffffffffffffffffffffffffffffffffffffffff1673ffffffffffffffffffffffffffffffffffffffff168152602001908152602001600020549050919050565b600e81815481106122ce57600080fd5b906000526020600020016000915054906101000a900473ffffffffffffffffffffffffffffffffffffffff1681565b600a5481565b60106020528060005260406000206000915090505481565b6000811161235e576040517f08c379a0000000000000000000000000000000000000000000000000000000008152600401612355906141e3565b60405180910390fd5b6123683382613c5f565b803373ffffffffffffffffffffffffffffffffffffffff167f075d9e176797104b3464a05d5c96510234489322afc9a210e05765f44a0f4cab60405160405180910390a350565b600d81815481106123bf57600080fd5b906000526020600020016000915054906101000a900473ffffffffffffffffffffffffffffffffffffffff1681565b600061241b600660009054906101000a900473ffffffffffffffffffffffffffffffffffffffff16613170565b670de0b6b3a7640000601160008573ffffffffffffffffffffffffffffffffffffffff1673ffffffffffffffffffffffffffffffffffffffff1681526020019081526020016000205461246e91906144b8565b6124789190614541565b9050919050565b60606004805461248e906143be565b80601f01602080910402602001604051908101604052809291908181526020018280546124ba906143be565b80156125075780601f106124dc57610100808354040283529160200191612507565b820191906000526020600020905b8154815290600101906020018083116124ea57829003601f168201915b5050505050905090565b6000601360003373ffffffffffffffffffffffffffffffffffffffff1673ffffffffffffffffffffffffffffffffffffffff1681526020019081526020016000205411612593576040517f08c379a000000000000000000000000000000000000000000000000000000000815260040161258a906141e3565b60405180910390fd5b600760009054906101000a900473ffffffffffffffffffffffffffffffffffffffff1673ffffffffffffffffffffffffffffffffffffffff1663095ea7b330601360003373ffffffffffffffffffffffffffffffffffffffff1673ffffffffffffffffffffffffffffffffffffffff168152602001908152602001600020546040518363ffffffff1660e01b815260040161262f929190614423565b6020604051808303816000875af115801561264e573d6000803e3d6000fd5b505050506040513d601f19601f820116820180604052508101906126729190614266565b50600760009054906101000a900473ffffffffffffffffffffffffffffffffffffffff1673ffffffffffffffffffffffffffffffffffffffff166323b872dd3033601360003373ffffffffffffffffffffffffffffffffffffffff1673ffffffffffffffffffffffffffffffffffffffff168152602001908152602001600020546040518463ffffffff1660e01b815260040161271193929190614203565b6020604051808303816000875af1158015612730573d6000803e3d6000fd5b505050506040513d601f19601f820116820180604052508101906127549190614266565b506000601360003373ffffffffffffffffffffffffffffffffffffffff1673ffffffffffffffffffffffffffffffffffffffff16815260200190815260200160002081905550565b6000670de0b6b3a76400006127d2600660009054906101000a900473ffffffffffffffffffffffffffffffffffffffff16613170565b600f60008573ffffffffffffffffffffffffffffffffffffffff1673ffffffffffffffffffffffffffffffffffffffff1681526020019081526020016000205461281c91906144b8565b6128269190614541565b9050919050565b600660009054906101000a900473ffffffffffffffffffffffffffffffffffffffff1681565b6000670de0b6b3a764000082600f60008673ffffffffffffffffffffffffffffffffffffffff1673ffffffffffffffffffffffffffffffffffffffff168152602001908152602001600020546128a991906144b8565b6128b39190614541565b905092915050565b6000806128c6613646565b905060006128d482866132ec565b905083811015612919576040517f08c379a000000000000000000000000000000000000000000000000000000000815260040161291090614650565b60405180910390fd5b612926828686840361364e565b60019250505092915050565b600061293d30613170565b905090565b60008061294d613646565b905061295a8185856138a3565b600191505092915050565b60008082116129a9576040517f08c379a00000000000000000000000000000000000000000000000000000000081526004016129a0906141e3565b60405180910390fd5b60006129d6600660009054906101000a900473ffffffffffffffffffffffffffffffffffffffff16613170565b905060006129e330613170565b905060006129f2858385613b22565b90506000612a01868486613bc7565b905060008282612a1191906143ef565b90508060086000828254612a2591906142c2565b925050819055503073ffffffffffffffffffffffffffffffffffffffff166323b872dd33308a6040518463ffffffff1660e01b8152600401612a6993929190614203565b6020604051808303816000875af1158015612a88573d6000803e3d6000fd5b505050506040513d601f19601f82011682018060405250810190612aac9190614266565b50600660009054906101000a900473ffffffffffffffffffffffffffffffffffffffff1673ffffffffffffffffffffffffffffffffffffffff1663a9059cbb33856040518363ffffffff1660e01b8152600401612b0a929190614423565b6020604051808303816000875af1158015612b29573d6000803e3d6000fd5b505050506040513d601f19601f82011682018060405250810190612b4d9190614266565b5060005b600d80549050811015612c3f576000612ba7600d8381548110612b7757612b76614318565b5b9060005260206000200160009054906101000a900473ffffffffffffffffffffffffffffffffffffffff1661279c565b90508060116000600d8581548110612bc257612bc1614318565b5b9060005260206000200160009054906101000a900473ffffffffffffffffffffffffffffffffffffffff1673ffffffffffffffffffffffffffffffffffffffff1673ffffffffffffffffffffffffffffffffffffffff16815260200190815260200160002081905550508080612c3790614347565b915050612b51565b5060005b600e80549050811015612d31576000612c99600e8381548110612c6957612c68614318565b5b9060005260206000200160009054906101000a900473ffffffffffffffffffffffffffffffffffffffff1661320b565b90508060126000600e8581548110612cb457612cb3614318565b5b9060005260206000200160009054906101000a900473ffffffffffffffffffffffffffffffffffffffff1673ffffffffffffffffffffffffffffffffffffffff1673ffffffffffffffffffffffffffffffffffffffff16815260200190815260200160002081905550508080612d2990614347565b915050612c43565b5082873373ffffffffffffffffffffffffffffffffffffffff167f5798ec577126413c34eec76755f7164dc2f21b7d22d79c3c2a20d321dea24ba060405160405180910390a48295505050505050919050565b60008111612dc7576040517f08c379a0000000000000000000000000000000000000000000000000000000008152600401612dbe906141e3565b60405180910390fd5b612dcf613dbe565b600660009054906101000a900473ffffffffffffffffffffffffffffffffffffffff1673ffffffffffffffffffffffffffffffffffffffff1663095ea7b330836040518363ffffffff1660e01b8152600401612e2c929190614423565b6020604051808303816000875af1158015612e4b573d6000803e3d6000fd5b505050506040513d601f19601f82011682018060405250810190612e6f9190614266565b50600660009054906101000a900473ffffffffffffffffffffffffffffffffffffffff1673ffffffffffffffffffffffffffffffffffffffff166323b872dd3033846040518463ffffffff1660e01b8152600401612ecf93929190614203565b6020604051808303816000875af1158015612eee573d6000803e3d6000fd5b505050506040513d601f19601f82011682018060405250810190612f129190614266565b5080601160003373ffffffffffffffffffffffffffffffffffffffff1673ffffffffffffffffffffffffffffffffffffffff1681526020019081526020016000206000828254612f6291906143ef565b9250508190555060005b600d8054905081101561305a576000612fc2600d8381548110612f9257612f91614318565b5b9060005260206000200160009054906101000a900473ffffffffffffffffffffffffffffffffffffffff166123ee565b905080600f6000600d8581548110612fdd57612fdc614318565b5b9060005260206000200160009054906101000a900473ffffffffffffffffffffffffffffffffffffffff1673ffffffffffffffffffffffffffffffffffffffff1673ffffffffffffffffffffffffffffffffffffffff1681526020019081526020016000208190555050808061305290614347565b915050612f6c565b50803373ffffffffffffffffffffffffffffffffffffffff167f67f5552e5abc48ba6305130450943fa23b76a0b6eb18c29d3eea39559139fc5a60405160405180910390a350565b60008082116130e6576040517f08c379a00000000000000000000000000000000000000000000000000000000081526004016130dd906145be565b60405180910390fd5b6000613113600660009054906101000a900473ffffffffffffffffffffffffffffffffffffffff16613170565b9050600061312030613170565b905061312d848284613b22565b92505050919050565b600080600954111561316757600061314f6009546130a2565b90508060085461315f91906142c2565b91505061316d565b60085490505b90565b60008173ffffffffffffffffffffffffffffffffffffffff166370a08231306040518263ffffffff1660e01b81526004016131ab919061413c565b602060405180830381865afa1580156131c8573d6000803e3d6000fd5b505050506040513d601f19601f820116820180604052508101906131ec9190614685565b9050919050565b60126020528060005260406000206000915090505481565b6000670de0b6b3a764000061321f30613170565b601060008573ffffffffffffffffffffffffffffffffffffffff1673ffffffffffffffffffffffffffffffffffffffff1681526020019081526020016000205461326991906144b8565b6132739190614541565b9050919050565b60136020528060005260406000206000915090505481565b60008061329d6117a6565b905060008111156132d75760006132b261173f565b905060006132bf836130a2565b905081816132cd91906142c2565b93505050506132e9565b60006132e161173f565b905080925050505b90565b6000600160008473ffffffffffffffffffffffffffffffffffffffff1673ffffffffffffffffffffffffffffffffffffffff16815260200190815260200160002060008373ffffffffffffffffffffffffffffffffffffffff1673ffffffffffffffffffffffffffffffffffffffff16815260200190815260200160002054905092915050565b6000601260003373ffffffffffffffffffffffffffffffffffffffff1673ffffffffffffffffffffffffffffffffffffffff16815260200190815260200160002054905090565b60006133c530613170565b670de0b6b3a7640000601260008573ffffffffffffffffffffffffffffffffffffffff1673ffffffffffffffffffffffffffffffffffffffff1681526020019081526020016000205461341891906144b8565b6134229190614541565b9050919050565b6000613456600660009054906101000a900473ffffffffffffffffffffffffffffffffffffffff16613170565b905090565b60085481565b600061346b6116a7565b905090565b600073ffffffffffffffffffffffffffffffffffffffff168273ffffffffffffffffffffffffffffffffffffffff16036134df576040517f08c379a00000000000000000000000000000000000000000000000000000000081526004016134d690614724565b60405180910390fd5b6134eb82600083613e4b565b60008060008473ffffffffffffffffffffffffffffffffffffffff1673ffffffffffffffffffffffffffffffffffffffff16815260200190815260200160002054905081811015613571576040517f08c379a0000000000000000000000000000000000000000000000000000000008152600401613568906147b6565b60405180910390fd5b8181036000808573ffffffffffffffffffffffffffffffffffffffff1673ffffffffffffffffffffffffffffffffffffffff1681526020019081526020016000208190555081600260008282546135c891906143ef565b92505081905550600073ffffffffffffffffffffffffffffffffffffffff168373ffffffffffffffffffffffffffffffffffffffff167fddf252ad1be2c89b69c2b068fc378daa952ba7f163c4a11628f55a4df523b3ef8460405161362d919061405b565b60405180910390a361364183600084613e50565b505050565b600033905090565b600073ffffffffffffffffffffffffffffffffffffffff168373ffffffffffffffffffffffffffffffffffffffff16036136bd576040517f08c379a00000000000000000000000000000000000000000000000000000000081526004016136b490614848565b60405180910390fd5b600073ffffffffffffffffffffffffffffffffffffffff168273ffffffffffffffffffffffffffffffffffffffff160361372c576040517f08c379a0000000000000000000000000000000000000000000000000000000008152600401613723906148da565b60405180910390fd5b80600160008573ffffffffffffffffffffffffffffffffffffffff1673ffffffffffffffffffffffffffffffffffffffff16815260200190815260200160002060008473ffffffffffffffffffffffffffffffffffffffff1673ffffffffffffffffffffffffffffffffffffffff168152602001908152602001600020819055508173ffffffffffffffffffffffffffffffffffffffff168373ffffffffffffffffffffffffffffffffffffffff167f8c5be1e5ebec7d5bd14f71427d1e84f3dd0314c0f7b2291e5b200ac8c7c3b9258360405161380a919061405b565b60405180910390a3505050565b600061382384846132ec565b90507fffffffffffffffffffffffffffffffffffffffffffffffffffffffffffffffff811461389d578181101561388f576040517f08c379a000000000000000000000000000000000000000000000000000000000815260040161388690614946565b60405180910390fd5b61389c848484840361364e565b5b50505050565b600073ffffffffffffffffffffffffffffffffffffffff168373ffffffffffffffffffffffffffffffffffffffff1603613912576040517f08c379a0000000000000000000000000000000000000000000000000000000008152600401613909906149d8565b60405180910390fd5b600073ffffffffffffffffffffffffffffffffffffffff168273ffffffffffffffffffffffffffffffffffffffff1603613981576040517f08c379a000000000000000000000000000000000000000000000000000000000815260040161397890614a6a565b60405180910390fd5b61398c838383613e4b565b60008060008573ffffffffffffffffffffffffffffffffffffffff1673ffffffffffffffffffffffffffffffffffffffff16815260200190815260200160002054905081811015613a12576040517f08c379a0000000000000000000000000000000000000000000000000000000008152600401613a0990614afc565b60405180910390fd5b8181036000808673ffffffffffffffffffffffffffffffffffffffff1673ffffffffffffffffffffffffffffffffffffffff16815260200190815260200160002081905550816000808573ffffffffffffffffffffffffffffffffffffffff1673ffffffffffffffffffffffffffffffffffffffff1681526020019081526020016000206000828254613aa591906142c2565b925050819055508273ffffffffffffffffffffffffffffffffffffffff168473ffffffffffffffffffffffffffffffffffffffff167fddf252ad1be2c89b69c2b068fc378daa952ba7f163c4a11628f55a4df523b3ef84604051613b09919061405b565b60405180910390a3613b1c848484613e50565b50505050565b60008083118015613b335750600082115b613b72576040517f08c379a0000000000000000000000000000000000000000000000000000000008152600401613b6990614b68565b60405180910390fd5b6000606185613b8191906144b8565b905060008382613b9191906144b8565b9050600082606487613ba391906144b8565b613bad91906142c2565b90508082613bbb9190614541565b93505050509392505050565b60008083118015613bd85750600082115b613c17576040517f08c379a0000000000000000000000000000000000000000000000000000000008152600401613c0e90614b68565b60405180910390fd5b60008284613c2591906144b8565b905060008585613c3591906142c2565b82613c409190614541565b905060008185613c5091906143ef565b90508093505050509392505050565b600073ffffffffffffffffffffffffffffffffffffffff168273ffffffffffffffffffffffffffffffffffffffff1603613cce576040517f08c379a0000000000000000000000000000000000000000000000000000000008152600401613cc590614bd4565b60405180910390fd5b613cda60008383613e4b565b8060026000828254613cec91906142c2565b92505081905550806000808473ffffffffffffffffffffffffffffffffffffffff1673ffffffffffffffffffffffffffffffffffffffff1681526020019081526020016000206000828254613d4191906142c2565b925050819055508173ffffffffffffffffffffffffffffffffffffffff16600073ffffffffffffffffffffffffffffffffffffffff167fddf252ad1be2c89b69c2b068fc378daa952ba7f163c4a11628f55a4df523b3ef83604051613da6919061405b565b60405180910390a3613dba60008383613e50565b5050565b6000613dc86117a6565b90506000811115613e2157613ddc81612965565b506000613de761173f565b90508060086000828254613dfb91906143ef565b925050819055508160096000828254613e1491906143ef565b9250508190555050613e48565b6000613e2b61173f565b90508060086000828254613e3f91906143ef565b92505081905550505b50565b505050565b505050565b600080fd5b6000819050919050565b613e6d81613e5a565b8114613e7857600080fd5b50565b600081359050613e8a81613e64565b92915050565b600060208284031215613ea657613ea5613e55565b5b6000613eb484828501613e7b565b91505092915050565b600081519050919050565b600082825260208201905092915050565b60005b83811015613ef7578082015181840152602081019050613edc565b83811115613f06576000848401525b50505050565b6000601f19601f8301169050919050565b6000613f2882613ebd565b613f328185613ec8565b9350613f42818560208601613ed9565b613f4b81613f0c565b840191505092915050565b60006020820190508181036000830152613f708184613f1d565b905092915050565b600073ffffffffffffffffffffffffffffffffffffffff82169050919050565b6000613fa382613f78565b9050919050565b613fb381613f98565b8114613fbe57600080fd5b50565b600081359050613fd081613faa565b92915050565b60008060408385031215613fed57613fec613e55565b5b6000613ffb85828601613fc1565b925050602061400c85828601613e7b565b9150509250929050565b60008115159050919050565b61402b81614016565b82525050565b60006020820190506140466000830184614022565b92915050565b61405581613e5a565b82525050565b6000602082019050614070600083018461404c565b92915050565b60006020828403121561408c5761408b613e55565b5b600061409a84828501613fc1565b91505092915050565b6000806000606084860312156140bc576140bb613e55565b5b60006140ca86828701613fc1565b93505060206140db86828701613fc1565b92505060406140ec86828701613e7b565b9150509250925092565b600060ff82169050919050565b61410c816140f6565b82525050565b60006020820190506141276000830184614103565b92915050565b61413681613f98565b82525050565b6000602082019050614151600083018461412d565b92915050565b6000806040838503121561416e5761416d613e55565b5b600061417c85828601613fc1565b925050602061418d85828601613fc1565b9150509250929050565b7f6e6f742067726561746572207468616e20300000000000000000000000000000600082015250565b60006141cd601283613ec8565b91506141d882614197565b602082019050919050565b600060208201905081810360008301526141fc816141c0565b9050919050565b6000606082019050614218600083018661412d565b614225602083018561412d565b614232604083018461404c565b949350505050565b61424381614016565b811461424e57600080fd5b50565b6000815190506142608161423a565b92915050565b60006020828403121561427c5761427b613e55565b5b600061428a84828501614251565b91505092915050565b7f4e487b7100000000000000000000000000000000000000000000000000000000600052601160045260246000fd5b60006142cd82613e5a565b91506142d883613e5a565b9250827fffffffffffffffffffffffffffffffffffffffffffffffffffffffffffffffff0382111561430d5761430c614293565b5b828201905092915050565b7f4e487b7100000000000000000000000000000000000000000000000000000000600052603260045260246000fd5b600061435282613e5a565b91507fffffffffffffffffffffffffffffffffffffffffffffffffffffffffffffffff820361438457614383614293565b5b600182019050919050565b7f4e487b7100000000000000000000000000000000000000000000000000000000600052602260045260246000fd5b600060028204905060018216806143d657607f821691505b6020821081036143e9576143e861438f565b5b50919050565b60006143fa82613e5a565b915061440583613e5a565b92508282101561441857614417614293565b5b828203905092915050565b6000604082019050614438600083018561412d565b614445602083018461404c565b9392505050565b7f6e6f74206f776e65720000000000000000000000000000000000000000000000600082015250565b6000614482600983613ec8565b915061448d8261444c565b602082019050919050565b600060208201905081810360008301526144b181614475565b9050919050565b60006144c382613e5a565b91506144ce83613e5a565b9250817fffffffffffffffffffffffffffffffffffffffffffffffffffffffffffffffff048311821515161561450757614506614293565b5b828202905092915050565b7f4e487b7100000000000000000000000000000000000000000000000000000000600052601260045260246000fd5b600061454c82613e5a565b915061455783613e5a565b92508261456757614566614512565b5b828204905092915050565b7f63616e6e6f74206265207a65726f000000000000000000000000000000000000600082015250565b60006145a8600e83613ec8565b91506145b382614572565b602082019050919050565b600060208201905081810360008301526145d78161459b565b9050919050565b7f45524332303a2064656372656173656420616c6c6f77616e63652062656c6f7760008201527f207a65726f000000000000000000000000000000000000000000000000000000602082015250565b600061463a602583613ec8565b9150614645826145de565b604082019050919050565b600060208201905081810360008301526146698161462d565b9050919050565b60008151905061467f81613e64565b92915050565b60006020828403121561469b5761469a613e55565b5b60006146a984828501614670565b91505092915050565b7f45524332303a206275726e2066726f6d20746865207a65726f2061646472657360008201527f7300000000000000000000000000000000000000000000000000000000000000602082015250565b600061470e602183613ec8565b9150614719826146b2565b604082019050919050565b6000602082019050818103600083015261473d81614701565b9050919050565b7f45524332303a206275726e20616d6f756e7420657863656564732062616c616e60008201527f6365000000000000000000000000000000000000000000000000000000000000602082015250565b60006147a0602283613ec8565b91506147ab82614744565b604082019050919050565b600060208201905081810360008301526147cf81614793565b9050919050565b7f45524332303a20617070726f76652066726f6d20746865207a65726f2061646460008201527f7265737300000000000000000000000000000000000000000000000000000000602082015250565b6000614832602483613ec8565b915061483d826147d6565b604082019050919050565b6000602082019050818103600083015261486181614825565b9050919050565b7f45524332303a20617070726f766520746f20746865207a65726f20616464726560008201527f7373000000000000000000000000000000000000000000000000000000000000602082015250565b60006148c4602283613ec8565b91506148cf82614868565b604082019050919050565b600060208201905081810360008301526148f3816148b7565b9050919050565b7f45524332303a20696e73756666696369656e7420616c6c6f77616e6365000000600082015250565b6000614930601d83613ec8565b915061493b826148fa565b602082019050919050565b6000602082019050818103600083015261495f81614923565b9050919050565b7f45524332303a207472616e736665722066726f6d20746865207a65726f20616460008201527f6472657373000000000000000000000000000000000000000000000000000000602082015250565b60006149c2602583613ec8565b91506149cd82614966565b604082019050919050565b600060208201905081810360008301526149f1816149b5565b9050919050565b7f45524332303a207472616e7366657220746f20746865207a65726f206164647260008201527f6573730000000000000000000000000000000000000000000000000000000000602082015250565b6000614a54602383613ec8565b9150614a5f826149f8565b604082019050919050565b60006020820190508181036000830152614a8381614a47565b9050919050565b7f45524332303a207472616e7366657220616d6f756e742065786365656473206260008201527f616c616e63650000000000000000000000000000000000000000000000000000602082015250565b6000614ae6602683613ec8565b9150614af182614a8a565b604082019050919050565b60006020820190508181036000830152614b1581614ad9565b9050919050565b7f696e76616c696420726573657276657300000000000000000000000000000000600082015250565b6000614b52601083613ec8565b9150614b5d82614b1c565b602082019050919050565b60006020820190508181036000830152614b8181614b45565b9050919050565b7f45524332303a206d696e7420746f20746865207a65726f206164647265737300600082015250565b6000614bbe601f83613ec8565b9150614bc982614b88565b602082019050919050565b60006020820190508181036000830152614bed81614bb1565b905091905056fea26469706673582212208148b51e4033f6b8ee9e862d1fdbf64e099e8c11f4c8676ed8c11b3d0670dbe364736f6c634300080d0033",
  "immutableReferences": {},
  "source": "pragma solidity ^0.8.13;\r\n\r\nimport \"@openzeppelin/contracts/token/ERC20/ERC20.sol\";\r\nimport \"@openzeppelin/contracts/token/ERC20/IERC20.sol\";\r\n\r\n\r\ninterface IXerra{\r\n    function buyUsdt(uint256) external;\r\n    function buyXerra(uint256) external;\r\n    function getUsdtAmount(uint256) external view returns(uint256);\r\n    function getXerraAmount(uint256) external view returns(uint256);\r\n}\r\n\r\n\r\n\r\ncontract Electron is ERC20{\r\n    address private owner;\r\n    address public tokenAddress;\r\n    address public xerraAddress;\r\n    uint256 public tokenRewardBalance;\r\n    uint256 public etrRewardBalance;\r\n    uint256 public tokenTarget;\r\n    uint256 public etrTarget;\r\n    uint256 public totalElectricity;\r\n    address[] public tokenRewardList;\r\n    address[] public etrRewardList;\r\n    mapping(address=>uint256) public tokenRewardRecord;\r\n    mapping(address=>uint256) public etrRewardRecord;\r\n    mapping(address=>uint256) public tokenStakeBalance;\r\n    mapping(address=>uint256) public etrStakeBalance;\r\n    mapping(address=>uint256) public xerraStakeBalance;\r\n\r\n    constructor(address token,uint256 _tokenTarget,uint256 _etrTarget,address _xerra) ERC20(\"Electron Token\", \"ETR\") {\r\n        tokenAddress = token;\r\n        xerraAddress = _xerra;\r\n        owner = msg.sender;\r\n        tokenTarget = _tokenTarget;\r\n        etrTarget = _etrTarget;\r\n    }\r\n\r\n    /*---------------------------------------event-------------------------------------------------------------*/\r\n    event TokenBuy(\r\n        address indexed buyer,\r\n        uint256 indexed token2Sold,\r\n        uint256 indexed token1Bought\r\n    );\r\n    event EtrBuy(\r\n        address indexed buyer,\r\n        uint256 indexed token1Sold,\r\n        uint256 indexed token2Bought\r\n    );\r\n    event AddToken(\r\n        address indexed provider,\r\n        uint256 indexed token1Amount\r\n    );\r\n\r\n    event AddEtr(\r\n        address indexed provider,\r\n        uint256 indexed token2Amount\r\n    );\r\n\r\n    event RemoveToken (\r\n        address indexed provider,\r\n        uint256 indexed token1Amount\r\n    );\r\n\r\n     event RemoveEtr (\r\n        address indexed provider,\r\n        uint256 indexed token2Amount\r\n    );\r\n\r\n    event ElectricityIn (\r\n        address indexed provider,\r\n        uint256 indexed electricityAmount\r\n    );\r\n\r\n    event ElectricityOut (\r\n        address indexed provider,\r\n        uint256 indexed electricityAmount\r\n    );\r\n\r\n    event tokenRewardGiveOut (\r\n        address indexed provider,\r\n        uint256 amount\r\n    );\r\n\r\n     event etrRewardGiveOut (\r\n        address indexed provider,\r\n        uint256 amount\r\n    );\r\n/********************************notes/***************************************\r\nview tells us that by running the function, no data will be saved/changed.\r\npure tells us that not only does the function not save any data to the blockchain, but it also doesn't read any data from the blockchain.\r\n\r\npublic - can be used when contract was deployed, can be used in child contract\r\nexternal can be used when contract was deployed , can NOT be used in child contract\r\nFunctions in interfaces must be declared external.\r\n\r\ninternal - can NOT be used when contract was deployed , can be used in child contract\r\nprivate - can NOT be used when contract was deployed, can NOT be used in child contract\r\n\r\n/********************************notes/****************************************/\r\n\r\n\r\n\r\n    \r\n    /*----------------------------private function-----------------------------*/\r\n    function getReserve(address _tokenAddress) public view returns (uint256) {\r\n        return IERC20(_tokenAddress).balanceOf(address(this));\r\n    }\r\n\r\n\r\n    function getAmount(\r\n        uint256 inputAmount,\r\n        uint256 inputReserve,\r\n        uint256 outputReserve\r\n    ) private pure returns (uint256) {\r\n        require(inputReserve > 0 && outputReserve > 0, \"invalid reserves\");\r\n        // 3% fee\r\n        uint256 inputAmountWithFee = inputAmount * 97;\r\n        uint256 numerator = inputAmountWithFee * outputReserve;\r\n        uint256 denominator = (inputReserve * 100) + inputAmountWithFee;\r\n        return numerator / denominator;\r\n    }\r\n\r\n    function getAmountNofee(\r\n        uint256 inputAmount,\r\n        uint256 inputReserve,\r\n        uint256 outputReserve\r\n    ) private pure returns (uint256){\r\n        require(inputReserve > 0 && outputReserve > 0, \"invalid reserves\");\r\n        uint256 k = inputReserve*outputReserve;\r\n        uint256 new_reserve = k/(inputReserve + inputAmount);\r\n        uint256 output_no_fee = outputReserve - new_reserve;\r\n        return output_no_fee;\r\n    }\r\n\r\n    function getTokenPercentage(address provider) public view returns (uint256){\r\n        return tokenStakeBalance[provider]*(10**18)/(getReserve(tokenAddress));\r\n    }\r\n\r\n    function getEtrPercentage(address provider) public view returns (uint256){\r\n        return etrStakeBalance[provider]*(10**18)/getReserve(address(this));\r\n    }\r\n\r\n    function giveOutTokenReward() public view returns (uint256){\r\n        return tokenRewardBalance*tokenRewardRecord[msg.sender]/(10**18);\r\n    }\r\n\r\n    function giveOutEtrReward() public view returns (uint256){\r\n        return etrRewardBalance*etrRewardRecord[msg.sender]/(10**18);\r\n    }\r\n\r\n    function updateCurrentStakeToken(address provider) public view returns (uint256){\r\n        return tokenRewardRecord[provider]*getReserve(tokenAddress)/(10**18);\r\n    }\r\n\r\n    function updateCurrentStakeEtr(address provider) public view returns (uint256){\r\n        return etrRewardRecord[provider]*getReserve(address(this))/(10**18);\r\n    }\r\n\r\n    function usdtStakeInXerra(address provider,uint256 amount) public view returns (uint256){\r\n        return tokenRewardRecord[provider]*amount/(10**18);\r\n    }\r\n\r\n\r\n\r\n    /*------------------------liquidity----------------------------*/\r\n\r\n    function EtrToTokenSwap(uint256 amount) public returns (uint256){\r\n        require(amount > 0 ,'not greater than 0');\r\n        uint256 tokenReserve = getReserve(tokenAddress);\r\n        uint256 etrReserve = getReserve(address(this));\r\n\r\n        uint256 token_out = getAmount(amount,etrReserve,tokenReserve);\r\n        uint256 token_virtual_out = getAmountNofee(amount,etrReserve,tokenReserve);\r\n        uint256 reward = token_virtual_out - token_out;\r\n        tokenRewardBalance += reward;\r\n        IERC20(address(this)).transferFrom(msg.sender,address(this),amount);\r\n        IERC20(tokenAddress).transfer(msg.sender,token_out);\r\n        for (uint i = 0; i < tokenRewardList.length; i++){\r\n            uint256 newStake = updateCurrentStakeToken(tokenRewardList[i]);\r\n            tokenStakeBalance[tokenRewardList[i]] = newStake;\r\n        }\r\n        for(uint i = 0; i < etrRewardList.length; i++){\r\n            uint256 newStake = updateCurrentStakeEtr(etrRewardList[i]);\r\n            etrStakeBalance[etrRewardList[i]] = newStake;\r\n        }\r\n        emit TokenBuy(msg.sender,amount,token_out);\r\n        return token_out;\r\n\r\n    }\r\n\r\n    function tokenToEtrSwap(uint256 amount) external  {\r\n        require(amount > 0 ,'not greater than 0');\r\n        uint256 tokenReserve = getReserve(tokenAddress);\r\n        uint256 etrReserve = getReserve(address(this));\r\n\r\n        uint256 etrOut = getAmount(amount,tokenReserve,etrReserve);\r\n        uint256 etr_virtual_out = getAmountNofee(amount,tokenReserve,etrReserve);\r\n        uint256 reward = etr_virtual_out-etrOut;\r\n        etrRewardBalance += reward;\r\n        IERC20(tokenAddress).transferFrom(msg.sender,address(this),amount);\r\n        IERC20(address(this)).transfer(msg.sender,etrOut);\r\n        for (uint i = 0; i < tokenRewardList.length; i++){\r\n            uint256 newStake = updateCurrentStakeToken(tokenRewardList[i]);\r\n            tokenStakeBalance[tokenRewardList[i]] = newStake;\r\n        }\r\n        for(uint i = 0; i < etrRewardList.length; i++){\r\n            uint256 newStake = updateCurrentStakeEtr(etrRewardList[i]);\r\n            etrStakeBalance[etrRewardList[i]] = newStake;\r\n        }\r\n        emit EtrBuy(msg.sender,amount,etrOut);\r\n    }\r\n\r\n\r\n    function addTokenLiquidity(uint256 amount) external  {\r\n        require(amount > 0 ,'not greater than 0');\r\n        IERC20(tokenAddress).transferFrom(msg.sender,address(this),amount);\r\n        if(tokenRewardRecord[msg.sender] == 0){\r\n            tokenRewardList.push(address(msg.sender));\r\n        }\r\n        tokenStakeBalance[msg.sender] += amount;\r\n        for (uint i = 0; i < tokenRewardList.length; i++){\r\n            uint256 newPercent = getTokenPercentage(tokenRewardList[i]);\r\n            tokenRewardRecord[tokenRewardList[i]] = newPercent;\r\n        }\r\n        emit AddToken(msg.sender, amount);\r\n    }\r\n\r\n    function addEtrLiquidity(uint256 amount) external  {\r\n        require(amount > 0 ,'not greater than 0');\r\n        IERC20(address(this)).transferFrom(msg.sender,address(this),amount);\r\n        if(etrRewardRecord[msg.sender] == 0){\r\n            etrRewardList.push(address(msg.sender));\r\n        }\r\n        etrStakeBalance[msg.sender] += amount;\r\n        for (uint i = 0; i < etrRewardList.length; i++){\r\n            uint256 newPercent = getEtrPercentage(etrRewardList[i]);\r\n            etrRewardRecord[etrRewardList[i]] = newPercent;\r\n        }\r\n        emit AddEtr(msg.sender, amount);\r\n    }\r\n\r\n    function handleWithdrawLiquidityInXra() external {\r\n        require(xerraStakeBalance[msg.sender] > 0 ,'not greater than 0');\r\n        IERC20(xerraAddress).approve(address(this),xerraStakeBalance[msg.sender]);\r\n        IERC20(xerraAddress).transferFrom(address(this),msg.sender,xerraStakeBalance[msg.sender]);\r\n        xerraStakeBalance[msg.sender] = 0;\r\n    }\r\n\r\n\r\n    function withdrawTokenLiquidity(uint256 amount) external {\r\n        require(amount > 0 ,'not greater than 0');\r\n        GiveOutReward(); \r\n        IERC20(tokenAddress).approve(address(this), amount);\r\n        IERC20(tokenAddress).transferFrom(address(this),msg.sender,amount);\r\n        tokenStakeBalance[msg.sender] -= amount;\r\n        for(uint i = 0; i < tokenRewardList.length; i++){\r\n            uint256 newPercent = getTokenPercentage(tokenRewardList[i]);\r\n            tokenRewardRecord[tokenRewardList[i]] = newPercent;\r\n        }\r\n        emit RemoveToken(msg.sender, amount);\r\n    }\r\n\r\n    function withdrawEtrLiquidity(uint256 amount) external {\r\n        require(amount > 0 ,'not greater than 0');\r\n        etrStakeBalance[msg.sender] -= amount;\r\n        for (uint i = 0; i < etrRewardList.length; i++){\r\n            uint256 newPercent = getEtrPercentage(etrRewardList[i]);\r\n            etrRewardRecord[etrRewardList[i]] = newPercent;\r\n        }\r\n        IERC20(address(this)).approve(address(this), amount);\r\n        IERC20(address(this)).transferFrom(address(this),msg.sender,amount);\r\n        emit RemoveEtr(msg.sender, amount);\r\n    }\r\n\r\n\r\n    function electricityToEtr(uint256 _electricityIn) public  {\r\n        require(_electricityIn > 0 ,'not greater than 0');\r\n        _mint(msg.sender,_electricityIn);\r\n        emit ElectricityIn(msg.sender,_electricityIn);\r\n    }\r\n\r\n    function etrToElectricity(uint256 _electricityOut) public  {\r\n        require(_electricityOut > 0 ,'not greater than 0');\r\n        _burn(msg.sender,_electricityOut);\r\n        emit ElectricityOut(msg.sender,_electricityOut);\r\n    }\r\n\r\n    function GiveOutReward() private {\r\n        uint256 etrReward = giveOutEtrReward();\r\n        if(etrReward > 0){\r\n            EtrToTokenSwap(etrReward);\r\n            uint256 tokenReward = giveOutTokenReward();\r\n            tokenRewardBalance -= tokenReward;\r\n            etrRewardBalance -= etrReward; \r\n        } else {\r\n            uint256 tokenReward = giveOutTokenReward();\r\n            tokenRewardBalance -= tokenReward;\r\n        }\r\n    }\r\n\r\n    function reduceElectricityPrice(uint256 amount) external {\r\n        require(msg.sender==owner,'not owner');\r\n        require(amount > 0,'not greater than 0');\r\n        IERC20(tokenAddress).approve(address(this),amount);\r\n        IERC20(tokenAddress).transferFrom(address(this),msg.sender,amount);\r\n        for (uint i = 0; i < tokenRewardList.length; i++){\r\n            uint256 newStake = updateCurrentStakeToken(tokenRewardList[i]);\r\n            tokenStakeBalance[tokenRewardList[i]] = newStake;\r\n            uint256 newPercent = getTokenPercentage(tokenRewardList[i]);\r\n            tokenRewardRecord[tokenRewardList[i]] = newPercent;\r\n        }\r\n    }\r\n\r\n    function updateLiquidityAfterBalancer(uint256 xerraAmount) external {\r\n        require(xerraAmount > 0 ,'not greater than 0');\r\n         for (uint i = 0; i < tokenRewardList.length; i++){\r\n            xerraStakeBalance[tokenRewardList[i]] += usdtStakeInXerra(tokenRewardList[i],xerraAmount);\r\n        }     \r\n    }\r\n\r\n\r\n\r\n\r\n    /*----------------------view---------------------------*/\r\n    function getTokenAmount(uint256 _etrIn) public view returns (uint256){\r\n        require(_etrIn > 0 ,'cannot be zero');\r\n        uint256 tokenReserve = getReserve(tokenAddress);\r\n        uint256 etrReserve = getReserve(address(this));\r\n        return getAmount(_etrIn,etrReserve,tokenReserve);\r\n    }\r\n\r\n    function getEtrAmount(uint256 _tokenin) public view returns (uint256){\r\n        require(_tokenin > 0 ,'cannot be zero');\r\n        uint256 tokenReserve = getReserve(tokenAddress);\r\n        uint256 etrReserve = getReserve(address(this));\r\n        return getAmount(_tokenin,tokenReserve,etrReserve);\r\n    }\r\n\r\n    function getMyTokenReward() public view returns (uint256){\r\n        uint256 etrReward = giveOutEtrReward();\r\n        if(etrReward > 0){\r\n            uint256 tokenReward = giveOutTokenReward();\r\n            uint256 amountOfEtrToToken = getTokenAmount(etrReward);\r\n            return amountOfEtrToToken+tokenReward;\r\n        }else{\r\n            uint256 tokenReward = giveOutTokenReward();\r\n            return tokenReward;\r\n        }\r\n       \r\n    }\r\n\r\n     function getEtrAmountNofee(uint256 _tokenin) public view returns (uint256){\r\n        require(_tokenin > 0 ,'cannot be zero');\r\n        uint256 tokenReserve = getReserve(tokenAddress);\r\n        uint256 etrReserve = getReserve(address(this));\r\n        return getAmountNofee(_tokenin,tokenReserve,etrReserve);\r\n\r\n    }\r\n\r\n    function getTotalEtrReserve() public view returns(uint256){\r\n        return getReserve(address(this));\r\n    }\r\n\r\n    function getTotalEtrSupply() public view returns(uint256){\r\n        return totalSupply();\r\n    }\r\n\r\n    function getTotalTokenReserve() public view returns(uint256){\r\n        return getReserve(tokenAddress);\r\n    }\r\n\r\n\r\n\r\n    function getTotalTokenRewardBalance() public view returns(uint256){\r\n        if(etrRewardBalance > 0) {\r\n            uint256 amountOfEtrToToken = getTokenAmount(etrRewardBalance);\r\n            return tokenRewardBalance+amountOfEtrToToken;\r\n        }else{\r\n            return tokenRewardBalance;\r\n        }\r\n       \r\n    }\r\n\r\n    function getEtrRewardBalance() public view returns(uint256){\r\n        return etrRewardBalance;\r\n    }\r\n\r\n\r\n\r\n    function getMyTokenStakeBalance() public view returns(uint256){\r\n            return tokenStakeBalance[msg.sender];\r\n    }\r\n    \r\n\r\n    function getXerraStakeBalance() public view returns(uint256){\r\n        return xerraStakeBalance[msg.sender];\r\n    }\r\n\r\n    function getMyEtrStakeBalance() public view returns(uint256){\r\n        return etrStakeBalance[msg.sender];\r\n    }\r\n}\r\n",
  "sourcePath": "C:\\Users\\Hong\\Desktop\\electron\\Frontend\\contracts\\Electron.sol",
  "compiler": {
    "name": "solc",
    "version": "0.8.13+commit.abaa5c0e.Emscripten.clang"
  },
  "schemaVersion": "3.4.7",
  "updatedAt": "2022-08-30T15:33:06.244Z",
  "networkType": "ethereum",
  "devdoc": {
    "kind": "dev",
    "methods": {
      "allowance(address,address)": {
        "details": "See {IERC20-allowance}."
      },
      "approve(address,uint256)": {
        "details": "See {IERC20-approve}. NOTE: If `amount` is the maximum `uint256`, the allowance is not updated on `transferFrom`. This is semantically equivalent to an infinite approval. Requirements: - `spender` cannot be the zero address."
      },
      "balanceOf(address)": {
        "details": "See {IERC20-balanceOf}."
      },
      "decimals()": {
        "details": "Returns the number of decimals used to get its user representation. For example, if `decimals` equals `2`, a balance of `505` tokens should be displayed to a user as `5.05` (`505 / 10 ** 2`). Tokens usually opt for a value of 18, imitating the relationship between Ether and Wei. This is the value {ERC20} uses, unless this function is overridden; NOTE: This information is only used for _display_ purposes: it in no way affects any of the arithmetic of the contract, including {IERC20-balanceOf} and {IERC20-transfer}."
      },
      "decreaseAllowance(address,uint256)": {
        "details": "Atomically decreases the allowance granted to `spender` by the caller. This is an alternative to {approve} that can be used as a mitigation for problems described in {IERC20-approve}. Emits an {Approval} event indicating the updated allowance. Requirements: - `spender` cannot be the zero address. - `spender` must have allowance for the caller of at least `subtractedValue`."
      },
      "increaseAllowance(address,uint256)": {
        "details": "Atomically increases the allowance granted to `spender` by the caller. This is an alternative to {approve} that can be used as a mitigation for problems described in {IERC20-approve}. Emits an {Approval} event indicating the updated allowance. Requirements: - `spender` cannot be the zero address."
      },
      "name()": {
        "details": "Returns the name of the token."
      },
      "symbol()": {
        "details": "Returns the symbol of the token, usually a shorter version of the name."
      },
      "totalSupply()": {
        "details": "See {IERC20-totalSupply}."
      },
      "transfer(address,uint256)": {
        "details": "See {IERC20-transfer}. Requirements: - `to` cannot be the zero address. - the caller must have a balance of at least `amount`."
      },
      "transferFrom(address,address,uint256)": {
        "details": "See {IERC20-transferFrom}. Emits an {Approval} event indicating the updated allowance. This is not required by the EIP. See the note at the beginning of {ERC20}. NOTE: Does not update the allowance if the current allowance is the maximum `uint256`. Requirements: - `from` and `to` cannot be the zero address. - `from` must have a balance of at least `amount`. - the caller must have allowance for ``from``'s tokens of at least `amount`."
      }
    },
    "version": 1
  },
  "userdoc": {
    "kind": "user",
    "methods": {},
    "version": 1
  }
}