{
  "contractName": "Xerra",
  "abi": [
    {
      "inputs": [
        {
          "internalType": "address",
          "name": "_usdtAddress",
          "type": "address"
        },
        {
          "internalType": "uint256",
          "name": "_target",
          "type": "uint256"
        }
      ],
      "stateMutability": "nonpayable",
      "type": "constructor"
    },
    {
      "anonymous": false,
      "inputs": [
        {
          "indexed": true,
          "internalType": "address",
          "name": "provider",
          "type": "address"
        },
        {
          "indexed": true,
          "internalType": "uint256",
          "name": "amount",
          "type": "uint256"
        }
      ],
      "name": "AddUsdt",
      "type": "event"
    },
    {
      "anonymous": false,
      "inputs": [
        {
          "indexed": true,
          "internalType": "address",
          "name": "owner",
          "type": "address"
        },
        {
          "indexed": true,
          "internalType": "address",
          "name": "spender",
          "type": "address"
        },
        {
          "indexed": false,
          "internalType": "uint256",
          "name": "value",
          "type": "uint256"
        }
      ],
      "name": "Approval",
      "type": "event"
    },
    {
      "anonymous": false,
      "inputs": [
        {
          "indexed": true,
          "internalType": "address",
          "name": "provider",
          "type": "address"
        },
        {
          "indexed": true,
          "internalType": "uint256",
          "name": "amount",
          "type": "uint256"
        }
      ],
      "name": "RemoveUsdt",
      "type": "event"
    },
    {
      "anonymous": false,
      "inputs": [
        {
          "indexed": true,
          "internalType": "address",
          "name": "from",
          "type": "address"
        },
        {
          "indexed": true,
          "internalType": "address",
          "name": "to",
          "type": "address"
        },
        {
          "indexed": false,
          "internalType": "uint256",
          "name": "value",
          "type": "uint256"
        }
      ],
      "name": "Transfer",
      "type": "event"
    },
    {
      "anonymous": false,
      "inputs": [
        {
          "indexed": true,
          "internalType": "address",
          "name": "buyer",
          "type": "address"
        },
        {
          "indexed": true,
          "internalType": "uint256",
          "name": "XerraSold",
          "type": "uint256"
        },
        {
          "indexed": true,
          "internalType": "uint256",
          "name": "UsdtBuy",
          "type": "uint256"
        }
      ],
      "name": "UsdtBuy",
      "type": "event"
    },
    {
      "anonymous": false,
      "inputs": [
        {
          "indexed": true,
          "internalType": "address",
          "name": "buyer",
          "type": "address"
        },
        {
          "indexed": true,
          "internalType": "uint256",
          "name": "UsdtSold",
          "type": "uint256"
        },
        {
          "indexed": true,
          "internalType": "uint256",
          "name": "XerraBuy",
          "type": "uint256"
        }
      ],
      "name": "XerraBuy",
      "type": "event"
    },
    {
      "anonymous": false,
      "inputs": [
        {
          "indexed": true,
          "internalType": "uint256",
          "name": "amount",
          "type": "uint256"
        }
      ],
      "name": "etrIncrease",
      "type": "event"
    },
    {
      "anonymous": false,
      "inputs": [
        {
          "indexed": true,
          "internalType": "uint256",
          "name": "amount",
          "type": "uint256"
        }
      ],
      "name": "etrReduce",
      "type": "event"
    },
    {
      "inputs": [
        {
          "internalType": "address",
          "name": "owner",
          "type": "address"
        },
        {
          "internalType": "address",
          "name": "spender",
          "type": "address"
        }
      ],
      "name": "allowance",
      "outputs": [
        {
          "internalType": "uint256",
          "name": "",
          "type": "uint256"
        }
      ],
      "stateMutability": "view",
      "type": "function",
      "constant": true
    },
    {
      "inputs": [
        {
          "internalType": "address",
          "name": "spender",
          "type": "address"
        },
        {
          "internalType": "uint256",
          "name": "amount",
          "type": "uint256"
        }
      ],
      "name": "approve",
      "outputs": [
        {
          "internalType": "bool",
          "name": "",
          "type": "bool"
        }
      ],
      "stateMutability": "nonpayable",
      "type": "function"
    },
    {
      "inputs": [
        {
          "internalType": "address",
          "name": "account",
          "type": "address"
        }
      ],
      "name": "balanceOf",
      "outputs": [
        {
          "internalType": "uint256",
          "name": "",
          "type": "uint256"
        }
      ],
      "stateMutability": "view",
      "type": "function",
      "constant": true
    },
    {
      "inputs": [
        {
          "internalType": "address",
          "name": "",
          "type": "address"
        }
      ],
      "name": "bondRecord",
      "outputs": [
        {
          "internalType": "uint256",
          "name": "",
          "type": "uint256"
        }
      ],
      "stateMutability": "view",
      "type": "function",
      "constant": true
    },
    {
      "inputs": [],
      "name": "decimals",
      "outputs": [
        {
          "internalType": "uint8",
          "name": "",
          "type": "uint8"
        }
      ],
      "stateMutability": "view",
      "type": "function",
      "constant": true
    },
    {
      "inputs": [
        {
          "internalType": "address",
          "name": "spender",
          "type": "address"
        },
        {
          "internalType": "uint256",
          "name": "subtractedValue",
          "type": "uint256"
        }
      ],
      "name": "decreaseAllowance",
      "outputs": [
        {
          "internalType": "bool",
          "name": "",
          "type": "bool"
        }
      ],
      "stateMutability": "nonpayable",
      "type": "function"
    },
    {
      "inputs": [
        {
          "internalType": "address",
          "name": "spender",
          "type": "address"
        },
        {
          "internalType": "uint256",
          "name": "addedValue",
          "type": "uint256"
        }
      ],
      "name": "increaseAllowance",
      "outputs": [
        {
          "internalType": "bool",
          "name": "",
          "type": "bool"
        }
      ],
      "stateMutability": "nonpayable",
      "type": "function"
    },
    {
      "inputs": [],
      "name": "name",
      "outputs": [
        {
          "internalType": "string",
          "name": "",
          "type": "string"
        }
      ],
      "stateMutability": "view",
      "type": "function",
      "constant": true
    },
    {
      "inputs": [],
      "name": "symbol",
      "outputs": [
        {
          "internalType": "string",
          "name": "",
          "type": "string"
        }
      ],
      "stateMutability": "view",
      "type": "function",
      "constant": true
    },
    {
      "inputs": [],
      "name": "target",
      "outputs": [
        {
          "internalType": "uint256",
          "name": "",
          "type": "uint256"
        }
      ],
      "stateMutability": "view",
      "type": "function",
      "constant": true
    },
    {
      "inputs": [],
      "name": "totalSupply",
      "outputs": [
        {
          "internalType": "uint256",
          "name": "",
          "type": "uint256"
        }
      ],
      "stateMutability": "view",
      "type": "function",
      "constant": true
    },
    {
      "inputs": [
        {
          "internalType": "address",
          "name": "to",
          "type": "address"
        },
        {
          "internalType": "uint256",
          "name": "amount",
          "type": "uint256"
        }
      ],
      "name": "transfer",
      "outputs": [
        {
          "internalType": "bool",
          "name": "",
          "type": "bool"
        }
      ],
      "stateMutability": "nonpayable",
      "type": "function"
    },
    {
      "inputs": [
        {
          "internalType": "address",
          "name": "from",
          "type": "address"
        },
        {
          "internalType": "address",
          "name": "to",
          "type": "address"
        },
        {
          "internalType": "uint256",
          "name": "amount",
          "type": "uint256"
        }
      ],
      "name": "transferFrom",
      "outputs": [
        {
          "internalType": "bool",
          "name": "",
          "type": "bool"
        }
      ],
      "stateMutability": "nonpayable",
      "type": "function"
    },
    {
      "inputs": [],
      "name": "usdtAddress",
      "outputs": [
        {
          "internalType": "address",
          "name": "",
          "type": "address"
        }
      ],
      "stateMutability": "view",
      "type": "function",
      "constant": true
    },
    {
      "inputs": [],
      "name": "calculatePreSale",
      "outputs": [
        {
          "internalType": "uint256",
          "name": "",
          "type": "uint256"
        }
      ],
      "stateMutability": "view",
      "type": "function",
      "constant": true
    },
    {
      "inputs": [
        {
          "internalType": "address",
          "name": "_tokenAddress",
          "type": "address"
        }
      ],
      "name": "getReserve",
      "outputs": [
        {
          "internalType": "uint256",
          "name": "",
          "type": "uint256"
        }
      ],
      "stateMutability": "view",
      "type": "function",
      "constant": true
    },
    {
      "inputs": [
        {
          "internalType": "uint256",
          "name": "amount",
          "type": "uint256"
        }
      ],
      "name": "buyXerra",
      "outputs": [],
      "stateMutability": "nonpayable",
      "type": "function"
    },
    {
      "inputs": [
        {
          "internalType": "uint256",
          "name": "amount",
          "type": "uint256"
        }
      ],
      "name": "preSaleBuyXerra",
      "outputs": [],
      "stateMutability": "nonpayable",
      "type": "function"
    },
    {
      "inputs": [
        {
          "internalType": "uint256",
          "name": "amount",
          "type": "uint256"
        }
      ],
      "name": "buyUsdt",
      "outputs": [],
      "stateMutability": "nonpayable",
      "type": "function"
    },
    {
      "inputs": [
        {
          "internalType": "uint256",
          "name": "amount",
          "type": "uint256"
        }
      ],
      "name": "addUsdtLiquidity",
      "outputs": [],
      "stateMutability": "nonpayable",
      "type": "function"
    },
    {
      "inputs": [
        {
          "internalType": "uint256",
          "name": "amount",
          "type": "uint256"
        }
      ],
      "name": "withdrawUsdtLiquidity",
      "outputs": [],
      "stateMutability": "nonpayable",
      "type": "function"
    },
    {
      "inputs": [],
      "name": "getXerraReserve",
      "outputs": [
        {
          "internalType": "uint256",
          "name": "",
          "type": "uint256"
        }
      ],
      "stateMutability": "view",
      "type": "function",
      "constant": true
    },
    {
      "inputs": [],
      "name": "getUsdtReserve",
      "outputs": [
        {
          "internalType": "uint256",
          "name": "",
          "type": "uint256"
        }
      ],
      "stateMutability": "view",
      "type": "function",
      "constant": true
    },
    {
      "inputs": [
        {
          "internalType": "uint256",
          "name": "xerraIn",
          "type": "uint256"
        }
      ],
      "name": "getUsdtAmount",
      "outputs": [
        {
          "internalType": "uint256",
          "name": "",
          "type": "uint256"
        }
      ],
      "stateMutability": "view",
      "type": "function",
      "constant": true
    },
    {
      "inputs": [
        {
          "internalType": "uint256",
          "name": "usdtIn",
          "type": "uint256"
        }
      ],
      "name": "getXerraAmount",
      "outputs": [
        {
          "internalType": "uint256",
          "name": "",
          "type": "uint256"
        }
      ],
      "stateMutability": "view",
      "type": "function",
      "constant": true
    },
    {
      "inputs": [],
      "name": "getMyUsdtStake",
      "outputs": [
        {
          "internalType": "uint256",
          "name": "",
          "type": "uint256"
        }
      ],
      "stateMutability": "view",
      "type": "function",
      "constant": true
    }
  ],
  "bytecode": "0x60806040523480156200001157600080fd5b506040516200349f3803806200349f83398181016040528101906200003791906200045c565b6040518060400160405280600581526020017f58657272610000000000000000000000000000000000000000000000000000008152506040518060400160405280600381526020017f58524100000000000000000000000000000000000000000000000000000000008152508160039080519060200190620000bb92919062000307565b508060049080519060200190620000d492919062000307565b505050620000f4306a084595161401484a0000006200018560201b60201c565b81600660006101000a81548173ffffffffffffffffffffffffffffffffffffffff021916908373ffffffffffffffffffffffffffffffffffffffff1602179055508060078190555033600560006101000a81548173ffffffffffffffffffffffffffffffffffffffff021916908373ffffffffffffffffffffffffffffffffffffffff160217905550505062000644565b600073ffffffffffffffffffffffffffffffffffffffff168273ffffffffffffffffffffffffffffffffffffffff1603620001f7576040517f08c379a0000000000000000000000000000000000000000000000000000000008152600401620001ee9062000504565b60405180910390fd5b6200020b60008383620002fd60201b60201c565b80600260008282546200021f919062000555565b92505081905550806000808473ffffffffffffffffffffffffffffffffffffffff1673ffffffffffffffffffffffffffffffffffffffff168152602001908152602001600020600082825462000276919062000555565b925050819055508173ffffffffffffffffffffffffffffffffffffffff16600073ffffffffffffffffffffffffffffffffffffffff167fddf252ad1be2c89b69c2b068fc378daa952ba7f163c4a11628f55a4df523b3ef83604051620002dd9190620005c3565b60405180910390a3620002f9600083836200030260201b60201c565b5050565b505050565b505050565b82805462000315906200060f565b90600052602060002090601f01602090048101928262000339576000855562000385565b82601f106200035457805160ff191683800117855562000385565b8280016001018555821562000385579182015b828111156200038457825182559160200191906001019062000367565b5b50905062000394919062000398565b5090565b5b80821115620003b357600081600090555060010162000399565b5090565b600080fd5b600073ffffffffffffffffffffffffffffffffffffffff82169050919050565b6000620003e982620003bc565b9050919050565b620003fb81620003dc565b81146200040757600080fd5b50565b6000815190506200041b81620003f0565b92915050565b6000819050919050565b620004368162000421565b81146200044257600080fd5b50565b60008151905062000456816200042b565b92915050565b60008060408385031215620004765762000475620003b7565b5b600062000486858286016200040a565b9250506020620004998582860162000445565b9150509250929050565b600082825260208201905092915050565b7f45524332303a206d696e7420746f20746865207a65726f206164647265737300600082015250565b6000620004ec601f83620004a3565b9150620004f982620004b4565b602082019050919050565b600060208201905081810360008301526200051f81620004dd565b9050919050565b7f4e487b7100000000000000000000000000000000000000000000000000000000600052601160045260246000fd5b6000620005628262000421565b91506200056f8362000421565b9250827fffffffffffffffffffffffffffffffffffffffffffffffffffffffffffffffff03821115620005a757620005a662000526565b5b828201905092915050565b620005bd8162000421565b82525050565b6000602082019050620005da6000830184620005b2565b92915050565b7f4e487b7100000000000000000000000000000000000000000000000000000000600052602260045260246000fd5b600060028204905060018216806200062857607f821691505b6020821081036200063e576200063d620005e0565b5b50919050565b612e4b80620006546000396000f3fe608060405234801561001057600080fd5b506004361061018e5760003560e01c80637c730e54116100de578063a457c2d711610097578063d4b8399211610071578063d4b83992146104c1578063dc9ea809146104df578063dd62ed3e1461050f578063f1cd90e91461053f5761018e565b8063a457c2d714610431578063a9059cbb14610461578063c9a396e9146104915761018e565b80637c730e541461036f5780637ee5e31c1461039f578063823eb472146103bd57806395d89b41146103d957806396ee56d1146103f75780639ab4a445146104135761018e565b806323b872dd1161014b578063395093511161012557806339509351146102c157806339537229146102f157806370a082311461030f57806374f388ef1461033f5761018e565b806323b872dd14610257578063313ce56714610287578063375df90c146102a55761018e565b806306fdde0314610193578063095ea7b3146101b15780630b075fa2146101e1578063103f0134146101ff57806318160ddd1461021d5780631e16dd8f1461023b575b600080fd5b61019b61055b565b6040516101a8919061225e565b60405180910390f35b6101cb60048036038101906101c69190612319565b6105ed565b6040516101d89190612374565b60405180910390f35b6101e9610610565b6040516101f6919061239e565b60405180910390f35b610207610642565b604051610214919061239e565b60405180910390f35b610225610689565b604051610232919061239e565b60405180910390f35b610255600480360381019061025091906123b9565b610693565b005b610271600480360381019061026c91906123e6565b610978565b60405161027e9190612374565b60405180910390f35b61028f6109a7565b60405161029c9190612455565b60405180910390f35b6102bf60048036038101906102ba91906123b9565b6109b0565b005b6102db60048036038101906102d69190612319565b610c13565b6040516102e89190612374565b60405180910390f35b6102f9610c4a565b604051610306919061239e565b60405180910390f35b61032960048036038101906103249190612470565b610cd9565b604051610336919061239e565b60405180910390f35b610359600480360381019061035491906123b9565b610d21565b604051610366919061239e565b60405180910390f35b610389600480360381019061038491906123b9565b610d78565b604051610396919061239e565b60405180910390f35b6103a7610dcf565b6040516103b4919061239e565b60405180910390f35b6103d760048036038101906103d291906123b9565b610ddf565b005b6103e16110fa565b6040516103ee919061225e565b60405180910390f35b610411600480360381019061040c91906123b9565b61118c565b005b61041b611402565b60405161042891906124ac565b60405180910390f35b61044b60048036038101906104469190612319565b611428565b6040516104589190612374565b60405180910390f35b61047b60048036038101906104769190612319565b61149f565b6040516104889190612374565b60405180910390f35b6104ab60048036038101906104a69190612470565b6114c2565b6040516104b8919061239e565b60405180910390f35b6104c9611545565b6040516104d6919061239e565b60405180910390f35b6104f960048036038101906104f49190612470565b61154b565b604051610506919061239e565b60405180910390f35b610529600480360381019061052491906124c7565b611563565b604051610536919061239e565b60405180910390f35b610559600480360381019061055491906123b9565b6115ea565b005b60606003805461056a90612536565b80601f016020809104026020016040519081016040528092919081815260200182805461059690612536565b80156105e35780601f106105b8576101008083540402835291602001916105e3565b820191906000526020600020905b8154815290600101906020018083116105c657829003601f168201915b5050505050905090565b6000806105f8611905565b905061060581858561190d565b600191505092915050565b600061063d600660009054906101000a900473ffffffffffffffffffffffffffffffffffffffff166114c2565b905090565b6000600860003373ffffffffffffffffffffffffffffffffffffffff1673ffffffffffffffffffffffffffffffffffffffff16815260200190815260200160002054905090565b6000600254905090565b600081116106d6576040517f08c379a00000000000000000000000000000000000000000000000000000000081526004016106cd906125b3565b60405180910390fd5b6000816106e1610c4a565b6106eb9190612602565b9050600660009054906101000a900473ffffffffffffffffffffffffffffffffffffffff1673ffffffffffffffffffffffffffffffffffffffff1663095ea7b333846040518363ffffffff1660e01b815260040161074a92919061265c565b6020604051808303816000875af1158015610769573d6000803e3d6000fd5b505050506040513d601f19601f8201168201806040525081019061078d91906126b1565b503073ffffffffffffffffffffffffffffffffffffffff1663095ea7b330836040518363ffffffff1660e01b81526004016107c992919061265c565b6020604051808303816000875af11580156107e8573d6000803e3d6000fd5b505050506040513d601f19601f8201168201806040525081019061080c91906126b1565b50600660009054906101000a900473ffffffffffffffffffffffffffffffffffffffff1673ffffffffffffffffffffffffffffffffffffffff166323b872dd3330856040518463ffffffff1660e01b815260040161086c939291906126de565b6020604051808303816000875af115801561088b573d6000803e3d6000fd5b505050506040513d601f19601f820116820180604052508101906108af91906126b1565b503073ffffffffffffffffffffffffffffffffffffffff1663a9059cbb33836040518363ffffffff1660e01b81526004016108eb92919061265c565b6020604051808303816000875af115801561090a573d6000803e3d6000fd5b505050506040513d601f19601f8201168201806040525081019061092e91906126b1565b5080823373ffffffffffffffffffffffffffffffffffffffff167fc1648998625a246749e9b99fe78ee0aa257be67d75b659d0de79328c4d98a00660405160405180910390a45050565b600080610983611905565b9050610990858285611ad6565b61099b858585611b62565b60019150509392505050565b60006012905090565b600081116109f3576040517f08c379a00000000000000000000000000000000000000000000000000000000081526004016109ea906125b3565b60405180910390fd5b6000600860003373ffffffffffffffffffffffffffffffffffffffff1673ffffffffffffffffffffffffffffffffffffffff16815260200190815260200160002081905550600660009054906101000a900473ffffffffffffffffffffffffffffffffffffffff1673ffffffffffffffffffffffffffffffffffffffff1663095ea7b330836040518363ffffffff1660e01b8152600401610a9592919061265c565b6020604051808303816000875af1158015610ab4573d6000803e3d6000fd5b505050506040513d601f19601f82011682018060405250810190610ad891906126b1565b50600660009054906101000a900473ffffffffffffffffffffffffffffffffffffffff1673ffffffffffffffffffffffffffffffffffffffff1663a9059cbb33836040518363ffffffff1660e01b8152600401610b3692919061265c565b6020604051808303816000875af1158015610b55573d6000803e3d6000fd5b505050506040513d601f19601f82011682018060405250810190610b7991906126b1565b50610bcc30610ba9600660009054906101000a900473ffffffffffffffffffffffffffffffffffffffff166114c2565b610bb2306114c2565b84610bbd9190612602565b610bc79190612744565b611de1565b803373ffffffffffffffffffffffffffffffffffffffff167f0a2f8882ba9101d63642c401e0a0478143a5b99cd188db803466fe72e6845f3b60405160405180910390a350565b600080610c1e611905565b9050610c3f818585610c308589611563565b610c3a9190612775565b61190d565b600191505092915050565b600060026007543073ffffffffffffffffffffffffffffffffffffffff166318160ddd6040518163ffffffff1660e01b8152600401602060405180830381865afa158015610c9c573d6000803e3d6000fd5b505050506040513d601f19601f82011682018060405250810190610cc091906127e0565b610cca9190612744565b610cd49190612744565b905090565b60008060008373ffffffffffffffffffffffffffffffffffffffff1673ffffffffffffffffffffffffffffffffffffffff168152602001908152602001600020549050919050565b600080610d4f600660009054906101000a900473ffffffffffffffffffffffffffffffffffffffff166114c2565b90506000610d5c306114c2565b90506000610d6b858385611fb7565b9050809350505050919050565b600080610da6600660009054906101000a900473ffffffffffffffffffffffffffffffffffffffff166114c2565b90506000610db3306114c2565b90506000610dc2858484611fb7565b9050809350505050919050565b6000610dda306114c2565b905090565b60008111610e22576040517f08c379a0000000000000000000000000000000000000000000000000000000008152600401610e19906125b3565b60405180910390fd5b6000610e4f600660009054906101000a900473ffffffffffffffffffffffffffffffffffffffff166114c2565b90506000610e5c306114c2565b90506000610e6b848385611fb7565b90503073ffffffffffffffffffffffffffffffffffffffff1663095ea7b333866040518363ffffffff1660e01b8152600401610ea892919061265c565b6020604051808303816000875af1158015610ec7573d6000803e3d6000fd5b505050506040513d601f19601f82011682018060405250810190610eeb91906126b1565b50600660009054906101000a900473ffffffffffffffffffffffffffffffffffffffff1673ffffffffffffffffffffffffffffffffffffffff1663095ea7b330836040518363ffffffff1660e01b8152600401610f4992919061265c565b6020604051808303816000875af1158015610f68573d6000803e3d6000fd5b505050506040513d601f19601f82011682018060405250810190610f8c91906126b1565b503073ffffffffffffffffffffffffffffffffffffffff166323b872dd3330876040518463ffffffff1660e01b8152600401610fca939291906126de565b6020604051808303816000875af1158015610fe9573d6000803e3d6000fd5b505050506040513d601f19601f8201168201806040525081019061100d91906126b1565b50600660009054906101000a900473ffffffffffffffffffffffffffffffffffffffff1673ffffffffffffffffffffffffffffffffffffffff1663a9059cbb33836040518363ffffffff1660e01b815260040161106b92919061265c565b6020604051808303816000875af115801561108a573d6000803e3d6000fd5b505050506040513d601f19601f820116820180604052508101906110ae91906126b1565b5080843373ffffffffffffffffffffffffffffffffffffffff167f71b3f09af490fccd7b26bb9fea3b40bb83597883b6446b51c06682e6717051d660405160405180910390a450505050565b60606004805461110990612536565b80601f016020809104026020016040519081016040528092919081815260200182805461113590612536565b80156111825780601f1061115757610100808354040283529160200191611182565b820191906000526020600020905b81548152906001019060200180831161116557829003601f168201915b5050505050905090565b600081116111cf576040517f08c379a00000000000000000000000000000000000000000000000000000000081526004016111c6906125b3565b60405180910390fd5b80600860003373ffffffffffffffffffffffffffffffffffffffff1673ffffffffffffffffffffffffffffffffffffffff168152602001908152602001600020600082825461121e9190612775565b92505081905550600660009054906101000a900473ffffffffffffffffffffffffffffffffffffffff1673ffffffffffffffffffffffffffffffffffffffff1663095ea7b333836040518363ffffffff1660e01b815260040161128292919061265c565b6020604051808303816000875af11580156112a1573d6000803e3d6000fd5b505050506040513d601f19601f820116820180604052508101906112c591906126b1565b50600660009054906101000a900473ffffffffffffffffffffffffffffffffffffffff1673ffffffffffffffffffffffffffffffffffffffff166323b872dd3330846040518463ffffffff1660e01b8152600401611325939291906126de565b6020604051808303816000875af1158015611344573d6000803e3d6000fd5b505050506040513d601f19601f8201168201806040525081019061136891906126b1565b506113bb30611398600660009054906101000a900473ffffffffffffffffffffffffffffffffffffffff166114c2565b6113a1306114c2565b846113ac9190612602565b6113b69190612744565b61205c565b803373ffffffffffffffffffffffffffffffffffffffff167ff9f12bf9d9b2c8dafc127be049aa94778a5a104c2ee97ed38f3ba26cb692dc7b60405160405180910390a350565b600660009054906101000a900473ffffffffffffffffffffffffffffffffffffffff1681565b600080611433611905565b905060006114418286611563565b905083811015611486576040517f08c379a000000000000000000000000000000000000000000000000000000000815260040161147d9061287f565b60405180910390fd5b611493828686840361190d565b60019250505092915050565b6000806114aa611905565b90506114b7818585611b62565b600191505092915050565b60008173ffffffffffffffffffffffffffffffffffffffff166370a08231306040518263ffffffff1660e01b81526004016114fd91906124ac565b602060405180830381865afa15801561151a573d6000803e3d6000fd5b505050506040513d601f19601f8201168201806040525081019061153e91906127e0565b9050919050565b60075481565b60086020528060005260406000206000915090505481565b6000600160008473ffffffffffffffffffffffffffffffffffffffff1673ffffffffffffffffffffffffffffffffffffffff16815260200190815260200160002060008373ffffffffffffffffffffffffffffffffffffffff1673ffffffffffffffffffffffffffffffffffffffff16815260200190815260200160002054905092915050565b6000811161162d576040517f08c379a0000000000000000000000000000000000000000000000000000000008152600401611624906125b3565b60405180910390fd5b600061165a600660009054906101000a900473ffffffffffffffffffffffffffffffffffffffff166114c2565b90506000611667306114c2565b90506000611676848484611fb7565b9050600660009054906101000a900473ffffffffffffffffffffffffffffffffffffffff1673ffffffffffffffffffffffffffffffffffffffff1663095ea7b333866040518363ffffffff1660e01b81526004016116d592919061265c565b6020604051808303816000875af11580156116f4573d6000803e3d6000fd5b505050506040513d601f19601f8201168201806040525081019061171891906126b1565b503073ffffffffffffffffffffffffffffffffffffffff1663095ea7b330836040518363ffffffff1660e01b815260040161175492919061265c565b6020604051808303816000875af1158015611773573d6000803e3d6000fd5b505050506040513d601f19601f8201168201806040525081019061179791906126b1565b50600660009054906101000a900473ffffffffffffffffffffffffffffffffffffffff1673ffffffffffffffffffffffffffffffffffffffff166323b872dd3330876040518463ffffffff1660e01b81526004016117f7939291906126de565b6020604051808303816000875af1158015611816573d6000803e3d6000fd5b505050506040513d601f19601f8201168201806040525081019061183a91906126b1565b503073ffffffffffffffffffffffffffffffffffffffff1663a9059cbb33836040518363ffffffff1660e01b815260040161187692919061265c565b6020604051808303816000875af1158015611895573d6000803e3d6000fd5b505050506040513d601f19601f820116820180604052508101906118b991906126b1565b5080843373ffffffffffffffffffffffffffffffffffffffff167fc1648998625a246749e9b99fe78ee0aa257be67d75b659d0de79328c4d98a00660405160405180910390a450505050565b600033905090565b600073ffffffffffffffffffffffffffffffffffffffff168373ffffffffffffffffffffffffffffffffffffffff160361197c576040517f08c379a000000000000000000000000000000000000000000000000000000000815260040161197390612911565b60405180910390fd5b600073ffffffffffffffffffffffffffffffffffffffff168273ffffffffffffffffffffffffffffffffffffffff16036119eb576040517f08c379a00000000000000000000000000000000000000000000000000000000081526004016119e2906129a3565b60405180910390fd5b80600160008573ffffffffffffffffffffffffffffffffffffffff1673ffffffffffffffffffffffffffffffffffffffff16815260200190815260200160002060008473ffffffffffffffffffffffffffffffffffffffff1673ffffffffffffffffffffffffffffffffffffffff168152602001908152602001600020819055508173ffffffffffffffffffffffffffffffffffffffff168373ffffffffffffffffffffffffffffffffffffffff167f8c5be1e5ebec7d5bd14f71427d1e84f3dd0314c0f7b2291e5b200ac8c7c3b92583604051611ac9919061239e565b60405180910390a3505050565b6000611ae28484611563565b90507fffffffffffffffffffffffffffffffffffffffffffffffffffffffffffffffff8114611b5c5781811015611b4e576040517f08c379a0000000000000000000000000000000000000000000000000000000008152600401611b4590612a0f565b60405180910390fd5b611b5b848484840361190d565b5b50505050565b600073ffffffffffffffffffffffffffffffffffffffff168373ffffffffffffffffffffffffffffffffffffffff1603611bd1576040517f08c379a0000000000000000000000000000000000000000000000000000000008152600401611bc890612aa1565b60405180910390fd5b600073ffffffffffffffffffffffffffffffffffffffff168273ffffffffffffffffffffffffffffffffffffffff1603611c40576040517f08c379a0000000000000000000000000000000000000000000000000000000008152600401611c3790612b33565b60405180910390fd5b611c4b8383836121bb565b60008060008573ffffffffffffffffffffffffffffffffffffffff1673ffffffffffffffffffffffffffffffffffffffff16815260200190815260200160002054905081811015611cd1576040517f08c379a0000000000000000000000000000000000000000000000000000000008152600401611cc890612bc5565b60405180910390fd5b8181036000808673ffffffffffffffffffffffffffffffffffffffff1673ffffffffffffffffffffffffffffffffffffffff16815260200190815260200160002081905550816000808573ffffffffffffffffffffffffffffffffffffffff1673ffffffffffffffffffffffffffffffffffffffff1681526020019081526020016000206000828254611d649190612775565b925050819055508273ffffffffffffffffffffffffffffffffffffffff168473ffffffffffffffffffffffffffffffffffffffff167fddf252ad1be2c89b69c2b068fc378daa952ba7f163c4a11628f55a4df523b3ef84604051611dc8919061239e565b60405180910390a3611ddb8484846121c0565b50505050565b600073ffffffffffffffffffffffffffffffffffffffff168273ffffffffffffffffffffffffffffffffffffffff1603611e50576040517f08c379a0000000000000000000000000000000000000000000000000000000008152600401611e4790612c57565b60405180910390fd5b611e5c826000836121bb565b60008060008473ffffffffffffffffffffffffffffffffffffffff1673ffffffffffffffffffffffffffffffffffffffff16815260200190815260200160002054905081811015611ee2576040517f08c379a0000000000000000000000000000000000000000000000000000000008152600401611ed990612ce9565b60405180910390fd5b8181036000808573ffffffffffffffffffffffffffffffffffffffff1673ffffffffffffffffffffffffffffffffffffffff168152602001908152602001600020819055508160026000828254611f399190612d09565b92505081905550600073ffffffffffffffffffffffffffffffffffffffff168373ffffffffffffffffffffffffffffffffffffffff167fddf252ad1be2c89b69c2b068fc378daa952ba7f163c4a11628f55a4df523b3ef84604051611f9e919061239e565b60405180910390a3611fb2836000846121c0565b505050565b60008083118015611fc85750600082115b612007576040517f08c379a0000000000000000000000000000000000000000000000000000000008152600401611ffe90612d89565b60405180910390fd5b60006061856120169190612602565b9050600083826120269190612602565b90506000826064876120389190612602565b6120429190612775565b905080826120509190612744565b93505050509392505050565b600073ffffffffffffffffffffffffffffffffffffffff168273ffffffffffffffffffffffffffffffffffffffff16036120cb576040517f08c379a00000000000000000000000000000000000000000000000000000000081526004016120c290612df5565b60405180910390fd5b6120d7600083836121bb565b80600260008282546120e99190612775565b92505081905550806000808473ffffffffffffffffffffffffffffffffffffffff1673ffffffffffffffffffffffffffffffffffffffff168152602001908152602001600020600082825461213e9190612775565b925050819055508173ffffffffffffffffffffffffffffffffffffffff16600073ffffffffffffffffffffffffffffffffffffffff167fddf252ad1be2c89b69c2b068fc378daa952ba7f163c4a11628f55a4df523b3ef836040516121a3919061239e565b60405180910390a36121b7600083836121c0565b5050565b505050565b505050565b600081519050919050565b600082825260208201905092915050565b60005b838110156121ff5780820151818401526020810190506121e4565b8381111561220e576000848401525b50505050565b6000601f19601f8301169050919050565b6000612230826121c5565b61223a81856121d0565b935061224a8185602086016121e1565b61225381612214565b840191505092915050565b600060208201905081810360008301526122788184612225565b905092915050565b600080fd5b600073ffffffffffffffffffffffffffffffffffffffff82169050919050565b60006122b082612285565b9050919050565b6122c0816122a5565b81146122cb57600080fd5b50565b6000813590506122dd816122b7565b92915050565b6000819050919050565b6122f6816122e3565b811461230157600080fd5b50565b600081359050612313816122ed565b92915050565b600080604083850312156123305761232f612280565b5b600061233e858286016122ce565b925050602061234f85828601612304565b9150509250929050565b60008115159050919050565b61236e81612359565b82525050565b60006020820190506123896000830184612365565b92915050565b612398816122e3565b82525050565b60006020820190506123b3600083018461238f565b92915050565b6000602082840312156123cf576123ce612280565b5b60006123dd84828501612304565b91505092915050565b6000806000606084860312156123ff576123fe612280565b5b600061240d868287016122ce565b935050602061241e868287016122ce565b925050604061242f86828701612304565b9150509250925092565b600060ff82169050919050565b61244f81612439565b82525050565b600060208201905061246a6000830184612446565b92915050565b60006020828403121561248657612485612280565b5b6000612494848285016122ce565b91505092915050565b6124a6816122a5565b82525050565b60006020820190506124c1600083018461249d565b92915050565b600080604083850312156124de576124dd612280565b5b60006124ec858286016122ce565b92505060206124fd858286016122ce565b9150509250929050565b7f4e487b7100000000000000000000000000000000000000000000000000000000600052602260045260246000fd5b6000600282049050600182168061254e57607f821691505b60208210810361256157612560612507565b5b50919050565b7f6e6f742067726561746572207468616e20300000000000000000000000000000600082015250565b600061259d6012836121d0565b91506125a882612567565b602082019050919050565b600060208201905081810360008301526125cc81612590565b9050919050565b7f4e487b7100000000000000000000000000000000000000000000000000000000600052601160045260246000fd5b600061260d826122e3565b9150612618836122e3565b9250817fffffffffffffffffffffffffffffffffffffffffffffffffffffffffffffffff0483118215151615612651576126506125d3565b5b828202905092915050565b6000604082019050612671600083018561249d565b61267e602083018461238f565b9392505050565b61268e81612359565b811461269957600080fd5b50565b6000815190506126ab81612685565b92915050565b6000602082840312156126c7576126c6612280565b5b60006126d58482850161269c565b91505092915050565b60006060820190506126f3600083018661249d565b612700602083018561249d565b61270d604083018461238f565b949350505050565b7f4e487b7100000000000000000000000000000000000000000000000000000000600052601260045260246000fd5b600061274f826122e3565b915061275a836122e3565b92508261276a57612769612715565b5b828204905092915050565b6000612780826122e3565b915061278b836122e3565b9250827fffffffffffffffffffffffffffffffffffffffffffffffffffffffffffffffff038211156127c0576127bf6125d3565b5b828201905092915050565b6000815190506127da816122ed565b92915050565b6000602082840312156127f6576127f5612280565b5b6000612804848285016127cb565b91505092915050565b7f45524332303a2064656372656173656420616c6c6f77616e63652062656c6f7760008201527f207a65726f000000000000000000000000000000000000000000000000000000602082015250565b60006128696025836121d0565b91506128748261280d565b604082019050919050565b600060208201905081810360008301526128988161285c565b9050919050565b7f45524332303a20617070726f76652066726f6d20746865207a65726f2061646460008201527f7265737300000000000000000000000000000000000000000000000000000000602082015250565b60006128fb6024836121d0565b91506129068261289f565b604082019050919050565b6000602082019050818103600083015261292a816128ee565b9050919050565b7f45524332303a20617070726f766520746f20746865207a65726f20616464726560008201527f7373000000000000000000000000000000000000000000000000000000000000602082015250565b600061298d6022836121d0565b915061299882612931565b604082019050919050565b600060208201905081810360008301526129bc81612980565b9050919050565b7f45524332303a20696e73756666696369656e7420616c6c6f77616e6365000000600082015250565b60006129f9601d836121d0565b9150612a04826129c3565b602082019050919050565b60006020820190508181036000830152612a28816129ec565b9050919050565b7f45524332303a207472616e736665722066726f6d20746865207a65726f20616460008201527f6472657373000000000000000000000000000000000000000000000000000000602082015250565b6000612a8b6025836121d0565b9150612a9682612a2f565b604082019050919050565b60006020820190508181036000830152612aba81612a7e565b9050919050565b7f45524332303a207472616e7366657220746f20746865207a65726f206164647260008201527f6573730000000000000000000000000000000000000000000000000000000000602082015250565b6000612b1d6023836121d0565b9150612b2882612ac1565b604082019050919050565b60006020820190508181036000830152612b4c81612b10565b9050919050565b7f45524332303a207472616e7366657220616d6f756e742065786365656473206260008201527f616c616e63650000000000000000000000000000000000000000000000000000602082015250565b6000612baf6026836121d0565b9150612bba82612b53565b604082019050919050565b60006020820190508181036000830152612bde81612ba2565b9050919050565b7f45524332303a206275726e2066726f6d20746865207a65726f2061646472657360008201527f7300000000000000000000000000000000000000000000000000000000000000602082015250565b6000612c416021836121d0565b9150612c4c82612be5565b604082019050919050565b60006020820190508181036000830152612c7081612c34565b9050919050565b7f45524332303a206275726e20616d6f756e7420657863656564732062616c616e60008201527f6365000000000000000000000000000000000000000000000000000000000000602082015250565b6000612cd36022836121d0565b9150612cde82612c77565b604082019050919050565b60006020820190508181036000830152612d0281612cc6565b9050919050565b6000612d14826122e3565b9150612d1f836122e3565b925082821015612d3257612d316125d3565b5b828203905092915050565b7f696e76616c696420726573657276657300000000000000000000000000000000600082015250565b6000612d736010836121d0565b9150612d7e82612d3d565b602082019050919050565b60006020820190508181036000830152612da281612d66565b9050919050565b7f45524332303a206d696e7420746f20746865207a65726f206164647265737300600082015250565b6000612ddf601f836121d0565b9150612dea82612da9565b602082019050919050565b60006020820190508181036000830152612e0e81612dd2565b905091905056fea2646970667358221220212656a78eb1adfaa6ea062e587f6e7a4a3b6f60e627fec56665d055bc9fba3564736f6c634300080d0033",
  "immutableReferences": {},
  "source": "pragma solidity ^0.8.13;\r\n\r\nimport \"@openzeppelin/contracts/token/ERC20/ERC20.sol\";\r\nimport \"@openzeppelin/contracts/token/ERC20/IERC20.sol\";\r\n\r\ncontract Xerra is ERC20 {\r\n    address private owner;\r\n    address public usdtAddress;\r\n    uint256 public target;\r\n    mapping(address=>uint256) public bondRecord;\r\n\r\n\r\n\r\n\r\n\r\n    constructor(address _usdtAddress,uint256 _target) ERC20('Xerra','XRA'){\r\n        _mint(address(this), 10000000 ether);\r\n        usdtAddress = _usdtAddress; \r\n        target = _target;\r\n        owner = msg.sender;\r\n    }\r\n\r\n    event UsdtBuy(\r\n        address indexed buyer,\r\n        uint256 indexed XerraSold,\r\n        uint256 indexed UsdtBuy\r\n    );\r\n\r\n    event XerraBuy(\r\n        address indexed buyer,\r\n        uint256 indexed UsdtSold,\r\n        uint256 indexed XerraBuy\r\n    );\r\n\r\n    event AddUsdt(\r\n        address indexed provider,\r\n        uint256 indexed amount\r\n    );\r\n\r\n    event RemoveUsdt(\r\n        address indexed provider,\r\n        uint256 indexed amount\r\n    );\r\n\r\n    event etrReduce(\r\n        uint256 indexed amount\r\n    );\r\n\r\n    event etrIncrease(\r\n        uint256 indexed amount\r\n    );\r\n\r\n\r\n    function getAmount(\r\n        uint256 inputAmount,\r\n        uint256 inputReserve,\r\n        uint256 outputReserve\r\n    ) private pure returns (uint256) {\r\n        require(inputReserve > 0 && outputReserve > 0, \"invalid reserves\");\r\n        // 3% fee\r\n        uint256 inputAmountWithFee = inputAmount * 97;\r\n        uint256 numerator = inputAmountWithFee * outputReserve;\r\n        uint256 denominator = (inputReserve * 100) + inputAmountWithFee;\r\n        return numerator / denominator;\r\n    }\r\n\r\n\r\n    function calculatePreSale() public view returns(uint256){\r\n        return ((IERC20(address(this)).totalSupply())/target)/2;\r\n    }\r\n\r\n    function getAmountNofee(\r\n        uint256 inputAmount,\r\n        uint256 inputReserve,\r\n        uint256 outputReserve\r\n    ) private pure returns (uint256){\r\n        require(inputReserve > 0 && outputReserve > 0, \"invalid reserves\");\r\n        uint256 k = inputReserve*outputReserve;\r\n        uint256 new_reserve = k/(inputReserve + inputAmount);\r\n        uint256 output_no_fee = outputReserve - new_reserve;\r\n        return output_no_fee;\r\n    }\r\n\r\n    function getReserve(address _tokenAddress) public view returns (uint256) {\r\n        return IERC20(_tokenAddress).balanceOf(address(this));\r\n    }\r\n\r\n    // invest xerra\r\n    function buyXerra(uint256 amount) external {\r\n        require(amount > 0 ,'not greater than 0');\r\n        uint256 usdtReserve = getReserve(usdtAddress);\r\n        uint256 xerraReserve = getReserve(address(this));\r\n        uint256 xerra_out = getAmount(amount,usdtReserve,xerraReserve);\r\n        IERC20(usdtAddress).approve(msg.sender,amount);\r\n        IERC20(address(this)).approve(address(this),xerra_out);\r\n        IERC20(usdtAddress).transferFrom(msg.sender,address(this),amount);\r\n        IERC20(address(this)).transfer(msg.sender,xerra_out);\r\n        emit XerraBuy(msg.sender, amount,xerra_out);\r\n    }\r\n\r\n\r\n    function preSaleBuyXerra(uint256 amount) external {\r\n        require(amount > 0,'not greater than 0');\r\n        uint256 xerra_out = calculatePreSale()*amount;\r\n        IERC20(usdtAddress).approve(msg.sender,amount);\r\n        IERC20(address(this)).approve(address(this),xerra_out);\r\n        IERC20(usdtAddress).transferFrom(msg.sender,address(this),amount);\r\n        IERC20(address(this)).transfer(msg.sender,xerra_out);\r\n        emit XerraBuy(msg.sender, amount,xerra_out);\r\n    }\r\n\r\n    // sell xerra\r\n    function buyUsdt(uint256 amount) external {\r\n        require(amount > 0, \"not greater than 0\");\r\n        uint256 usdtReserve = getReserve(usdtAddress);\r\n        uint256 xerraReserve = getReserve(address(this));\r\n        uint256 usdt_out = getAmount(amount,xerraReserve,usdtReserve);\r\n        IERC20(address(this)).approve(msg.sender,amount);\r\n        IERC20(usdtAddress).approve(address(this),usdt_out);\r\n        IERC20(address(this)).transferFrom(msg.sender,address(this),amount);\r\n        IERC20(usdtAddress).transfer(msg.sender,usdt_out);\r\n        emit UsdtBuy(msg.sender, amount,usdt_out);\r\n    }\r\n\r\n    // usdt bond\r\n    function addUsdtLiquidity(uint256 amount) external {\r\n        require(amount > 0, \"not greater than 0\");\r\n        bondRecord[msg.sender] +=amount;\r\n        IERC20(usdtAddress).approve(msg.sender,amount);\r\n        IERC20(usdtAddress).transferFrom(msg.sender,address(this),amount);\r\n        _mint(address(this), (amount*getReserve(address(this)))/getReserve(usdtAddress));\r\n        emit AddUsdt(msg.sender,amount);\r\n    }\r\n\r\n    // usdt bond cash out\r\n    function withdrawUsdtLiquidity(uint256 amount) external {\r\n        require(amount > 0, \"not greater than 0\");\r\n        bondRecord[msg.sender] = 0;\r\n        IERC20(usdtAddress).approve(address(this),amount);\r\n        IERC20(usdtAddress).transfer(msg.sender,amount);\r\n        _burn(address(this), (amount*getReserve(address(this)))/getReserve(usdtAddress));\r\n        emit RemoveUsdt(msg.sender,amount);\r\n    }\r\n\r\n\r\n\r\n    // // etr price too high\r\n    // function reduceEtrPrice(uint256 amount,address etrAddress) public {\r\n    //     bool success = IERC20(usdtAddress).approve(address(etrAddress), amount);\r\n    //     if(success) {\r\n    //         uint256 usdtReserve = getReserve(usdtAddress);\r\n    //         uint256 xerraReserve = getReserve(address(this));\r\n    //         uint256 xerra_out = getAmount(amount,usdtReserve,xerraReserve);\r\n    //         IERC20(usdtAddress).approve(address(etrAddress),amount);\r\n    //         IERC20(address(this)).approve(address(this),xerra_out);\r\n    //         IERC20(usdtAddress).transferFrom(address(etrAddress),address(this),amount);\r\n    //         IERC20(address(this)).transfer(address(etrAddress),xerra_out);\r\n    //         emit etrReduce(amount);\r\n    //     }\r\n    // }\r\n\r\n\r\n    // // etr price too low\r\n    // function increaseEtrPrice(uint256 amount) public {\r\n    //     require(amount > 0, \"not greater than 0\");\r\n    //     bool success = IERC20(usdtAddress).approve(address(this), amount);\r\n    //     if(success){\r\n    //         uint256 usdtReserve = getReserve(usdtAddress);\r\n    //         uint256 xerraReserve = getReserve(address(this));\r\n    //         uint256 usdt_out = getAmount(amount,xerraReserve,usdtReserve);\r\n    //         IERC20(address(this)).transferFrom(address(etrAddress),address(this),amount);\r\n    //         IERC20(usdtAddress).transfer(address(etrAddress),usdt_out);\r\n    //         emit etrIncrease(amount);\r\n    //     }\r\n    // }\r\n\r\n\r\n\r\n    function getXerraReserve() external view returns(uint256){\r\n        return getReserve(address(this));\r\n    }\r\n\r\n    function getUsdtReserve() external view returns(uint256){\r\n        return getReserve(usdtAddress);\r\n    }\r\n\r\n    function getUsdtAmount(uint256 xerraIn) external view returns(uint256){\r\n        uint256 usdtReserve = getReserve(usdtAddress);\r\n        uint256 xerraReserve = getReserve(address(this));\r\n        uint256 usdt_out = getAmount(xerraIn,xerraReserve,usdtReserve);\r\n        return usdt_out;\r\n    }\r\n\r\n    function getXerraAmount(uint256 usdtIn) external view returns (uint256){\r\n        uint256 usdtReserve = getReserve(usdtAddress);\r\n        uint256 xerraReserve = getReserve(address(this));\r\n        uint256 xerra_out = getAmount(usdtIn,usdtReserve,xerraReserve);\r\n        return xerra_out;\r\n    }\r\n\r\n    function getMyUsdtStake() external view returns (uint256){\r\n        return bondRecord[msg.sender];\r\n    }\r\n\r\n\r\n}",
  "sourcePath": "C:\\Users\\Hong\\Desktop\\electron\\Frontend\\contracts\\Xerra.sol",
  "compiler": {
    "name": "solc",
    "version": "0.8.13+commit.abaa5c0e.Emscripten.clang"
  },
  "schemaVersion": "3.4.7",
  "updatedAt": "2022-08-30T15:33:06.276Z",
  "networkType": "ethereum",
  "devdoc": {
    "kind": "dev",
    "methods": {
      "allowance(address,address)": {
        "details": "See {IERC20-allowance}."
      },
      "approve(address,uint256)": {
        "details": "See {IERC20-approve}. NOTE: If `amount` is the maximum `uint256`, the allowance is not updated on `transferFrom`. This is semantically equivalent to an infinite approval. Requirements: - `spender` cannot be the zero address."
      },
      "balanceOf(address)": {
        "details": "See {IERC20-balanceOf}."
      },
      "decimals()": {
        "details": "Returns the number of decimals used to get its user representation. For example, if `decimals` equals `2`, a balance of `505` tokens should be displayed to a user as `5.05` (`505 / 10 ** 2`). Tokens usually opt for a value of 18, imitating the relationship between Ether and Wei. This is the value {ERC20} uses, unless this function is overridden; NOTE: This information is only used for _display_ purposes: it in no way affects any of the arithmetic of the contract, including {IERC20-balanceOf} and {IERC20-transfer}."
      },
      "decreaseAllowance(address,uint256)": {
        "details": "Atomically decreases the allowance granted to `spender` by the caller. This is an alternative to {approve} that can be used as a mitigation for problems described in {IERC20-approve}. Emits an {Approval} event indicating the updated allowance. Requirements: - `spender` cannot be the zero address. - `spender` must have allowance for the caller of at least `subtractedValue`."
      },
      "increaseAllowance(address,uint256)": {
        "details": "Atomically increases the allowance granted to `spender` by the caller. This is an alternative to {approve} that can be used as a mitigation for problems described in {IERC20-approve}. Emits an {Approval} event indicating the updated allowance. Requirements: - `spender` cannot be the zero address."
      },
      "name()": {
        "details": "Returns the name of the token."
      },
      "symbol()": {
        "details": "Returns the symbol of the token, usually a shorter version of the name."
      },
      "totalSupply()": {
        "details": "See {IERC20-totalSupply}."
      },
      "transfer(address,uint256)": {
        "details": "See {IERC20-transfer}. Requirements: - `to` cannot be the zero address. - the caller must have a balance of at least `amount`."
      },
      "transferFrom(address,address,uint256)": {
        "details": "See {IERC20-transferFrom}. Emits an {Approval} event indicating the updated allowance. This is not required by the EIP. See the note at the beginning of {ERC20}. NOTE: Does not update the allowance if the current allowance is the maximum `uint256`. Requirements: - `from` and `to` cannot be the zero address. - `from` must have a balance of at least `amount`. - the caller must have allowance for ``from``'s tokens of at least `amount`."
      }
    },
    "version": 1
  },
  "userdoc": {
    "kind": "user",
    "methods": {},
    "version": 1
  }
}